{
  "transactions": [
    {
      "hash": "0xd744080c14aa601828462c9398212afba853075789b40bbfd530ff0d5f16cfbf",
      "transactionType": "CALL",
      "contractName": null,
      "contractAddress": "0x201ce172d07566bea747d18848534f4d8adbe69f",
      "function": "afterTaskSubmission((string,bytes,address,uint16),bool,bytes,uint256[2],uint256[])",
      "arguments": [
        "(QmZkk2Y7c9A9wKoWh3FGRPSRkfZPvEmRnnC5DuqHHESpBb, 0x21dcb7f0000000000000000000000000000000000000000000000000000000000000000000000000000000000000000000000000000000000000000000000000000000000000000000000000000000000000000000000000000001959613c3b100000000000000000000000000000000000000000000000000000000000000a000000000000000000000000000000000000000000000000000000000000000e00000000000000000000000000000000000000000000000000000000000000008415050524f5645440000000000000000000000000000000000000000000000000000000000000000000000000000000000000000000000000000000000000038506f6c69637920274141564520436f6d706c6574652041565320506c7567696e2720617574686f72697a6564207472616e73616374696f6e0000000000000000, 0x0000000000000000000000000000000000000000, 0)",
        "true",
        "0x3078",
        "[1, 2]",
        "[]"
      ],
      "transaction": {
        "from": "0xeb0d8736cc2c47882f112507cc8a3355d37d2413",
        "to": "0x201ce172d07566bea747d18848534f4d8adbe69f",
        "gas": "0x4ac71",
        "value": "0x0",
        "input": "0xdd1a538700000000000000000000000000000000000000000000000000000000000000c000000000000000000000000000000000000000000000000000000000000000010000000000000000000000000000000000000000000000000000000000000300000000000000000000000000000000000000000000000000000000000000000100000000000000000000000000000000000000000000000000000000000000020000000000000000000000000000000000000000000000000000000000000340000000000000000000000000000000000000000000000000000000000000008000000000000000000000000000000000000000000000000000000000000000e000000000000000000000000000000000000000000000000000000000000000000000000000000000000000000000000000000000000000000000000000000000000000000000000000000000000000000000000000000000000000000000002e516d5a6b6b32593763394139774b6f5768334647525053526b665a5076456d526e6e433544757148484553704262000000000000000000000000000000000000000000000000000000000000000000000000000000000000000000000000014021dcb7f0000000000000000000000000000000000000000000000000000000000000000000000000000000000000000000000000000000000000000000000000000000000000000000000000000000000000000000000000000001959613c3b100000000000000000000000000000000000000000000000000000000000000a000000000000000000000000000000000000000000000000000000000000000e00000000000000000000000000000000000000000000000000000000000000008415050524f5645440000000000000000000000000000000000000000000000000000000000000000000000000000000000000000000000000000000000000038506f6c69637920274141564520436f6d706c6574652041565320506c7567696e2720617574686f72697a6564207472616e73616374696f6e0000000000000000000000000000000000000000000000000000000000000000000000000000000230780000000000000000000000000000000000000000000000000000000000000000000000000000000000000000000000000000000000000000000000000000",
        "nonce": "0x4f",
        "chainId": "0x14a34"
      },
      "additionalContracts": [],
      "isFixedGasLimit": false
    }
  ],
  "receipts": [
    {
      "status": "0x1",
      "cumulativeGasUsed": "0x52dbd0",
      "logs": [
        {
          "address": "0x201ce172d07566bea747d18848534f4d8adbe69f",
          "topics": [
            "0xc258815eb0a1f2440f7f553879513276ef63bc429da850c8aae677403d0ba287"
          ],
          "data": "0x21dcb7f0000000000000000000000000000000000000000000000000000000000000000000000000000000000000000000000000000000000000000000000000000000000000000000000000000000000000000000000000000001959613c3b100000000000000000000000000000000000000000000000000000000000000a000000000000000000000000000000000000000000000000000000000000000e00000000000000000000000000000000000000000000000000000000000000008415050524f5645440000000000000000000000000000000000000000000000000000000000000000000000000000000000000000000000000000000000000038506f6c69637920274141564520436f6d706c6574652041565320506c7567696e2720617574686f72697a6564207472616e73616374696f6e0000000000000000",
          "blockHash": "0xde7dbc6bf16479f7c93bbb1abd8da7fc2ac998ec08c1f5f42d1ffd831733a646",
          "blockNumber": "0x16137f1",
          "transactionHash": "0xd744080c14aa601828462c9398212afba853075789b40bbfd530ff0d5f16cfbf",
          "transactionIndex": "0x19",
          "logIndex": "0x84",
          "removed": false
        },
        {
          "address": "0x6966b0e55883d49bfb24539356a2f8a673e02039",
          "topics": [
            "0x769f711d20c679153d382254f59892613b58a97cc876b249134ac25c80f9c814",
            "0x000000000000000000000000201ce172d07566bea747d18848534f4d8adbe69f",
            "0x000000000000000000000000000000000000000000000000000000000008274f",
            "0x0000000000000000000000002e22bc79b58117015bf458045488e09aaa0bb794"
          ],
          "data": "0x0000000000000000000000000000000000000000000000000000000000000020000000000000000000000000000000000000000000000000000000000000020d0300009ca400014a34000000000000000000000000201ce172d07566bea747d18848534f4d8adbe69f0008274f0000000000000000000000002e22bc79b58117015bf458045488e09aaa0bb79400000000000000000000000000000000000000000000000000000000000000c021dcb7f0000000000000000000000000000000000000000000000000000000000000000000000000000000000000000000000000000000000000000000000000000000000000000000000000000000000000000000000000000001959613c3b100000000000000000000000000000000000000000000000000000000000001200000000000000000000000000000000000000000000000000000000000000160000000000000000000000000000000000000000000000000000000000000002e516d5a6b6b32593763394139774b6f5768334647525053526b665a5076456d526e6e4335447571484845537042620000000000000000000000000000000000000000000000000000000000000000000000000000000000000000000000000008415050524f5645440000000000000000000000000000000000000000000000000000000000000000000000000000000000000000000000000000000000000038506f6c69637920274141564520436f6d706c6574652041565320506c7567696e2720617574686f72697a6564207472616e73616374696f6e000000000000000000000000000000000000000000000000000000",
          "blockHash": "0xde7dbc6bf16479f7c93bbb1abd8da7fc2ac998ec08c1f5f42d1ffd831733a646",
          "blockNumber": "0x16137f1",
          "transactionHash": "0xd744080c14aa601828462c9398212afba853075789b40bbfd530ff0d5f16cfbf",
          "transactionIndex": "0x19",
          "logIndex": "0x85",
          "removed": false
        },
        {
          "address": "0x6966b0e55883d49bfb24539356a2f8a673e02039",
          "topics": [
            "0x788dbc1b7152732178210e7f4d9d010ef016f9eafbe66786bd7169f56e0c353a",
            "0xb1e8ffbe9a0425a8f2430ef322df92460b6eba12b3ff9c58ac785875f278db29"
          ],
          "data": "0x",
          "blockHash": "0xde7dbc6bf16479f7c93bbb1abd8da7fc2ac998ec08c1f5f42d1ffd831733a646",
          "blockNumber": "0x16137f1",
          "transactionHash": "0xd744080c14aa601828462c9398212afba853075789b40bbfd530ff0d5f16cfbf",
          "transactionIndex": "0x19",
          "logIndex": "0x86",
          "removed": false
        },
        {
          "address": "0x28b02b97a850872c4d33c3e024fab6499ad96564",
          "topics": [
            "0x65695c3748edae85a24cc2c60b299b31f463050bc259150d2e5802ec8d11720a",
            "0xb1e8ffbe9a0425a8f2430ef322df92460b6eba12b3ff9c58ac785875f278db29",
            "0x000000000000000000000000000000000000000000000000000000000008274f"
          ],
          "data": "0x00000000000000000000000000000000000000000000000000000000000314ee00000000000000000000000000000000000000000000000000000acd68660ce0",
          "blockHash": "0xde7dbc6bf16479f7c93bbb1abd8da7fc2ac998ec08c1f5f42d1ffd831733a646",
          "blockNumber": "0x16137f1",
          "transactionHash": "0xd744080c14aa601828462c9398212afba853075789b40bbfd530ff0d5f16cfbf",
          "transactionIndex": "0x19",
          "logIndex": "0x87",
          "removed": false
        },
        {
          "address": "0x86fb9f1c124fb20ff130c41a79a432f770f67afd",
          "topics": [
            "0x253a3a04cab70d47c1504809242d9350cd81627b4f1d50753e159cf8cd76ed33"
          ],
          "data": "0xb1e8ffbe9a0425a8f2430ef322df92460b6eba12b3ff9c58ac785875f278db290000000000000000000000000000000000000000000000000000000000009ad5",
          "blockHash": "0xde7dbc6bf16479f7c93bbb1abd8da7fc2ac998ec08c1f5f42d1ffd831733a646",
          "blockNumber": "0x16137f1",
          "transactionHash": "0xd744080c14aa601828462c9398212afba853075789b40bbfd530ff0d5f16cfbf",
          "transactionIndex": "0x19",
          "logIndex": "0x88",
          "removed": false
        },
        {
          "address": "0x201ce172d07566bea747d18848534f4d8adbe69f",
          "topics": [
            "0xc694db997aa6bf290770077bf817cf5889350fa738e7ca37f9bcd63a5706c7f3"
          ],
          "data": "0xb1e8ffbe9a0425a8f2430ef322df92460b6eba12b3ff9c58ac785875f278db29000000000000000000000000000000000000000000000000000000000000008000000000000000000000000000000000000000000000000000000000000000e00000000000000000000000000000000000000000000000000000000000000000000000000000000000000000000000000000000000000000000000000000002e516d5a6b6b32593763394139774b6f5768334647525053526b665a5076456d526e6e433544757148484553704262000000000000000000000000000000000000000000000000000000000000000000000000000000000000000000000000014021dcb7f0000000000000000000000000000000000000000000000000000000000000000000000000000000000000000000000000000000000000000000000000000000000000000000000000000000000000000000000000000001959613c3b100000000000000000000000000000000000000000000000000000000000000a000000000000000000000000000000000000000000000000000000000000000e00000000000000000000000000000000000000000000000000000000000000008415050524f5645440000000000000000000000000000000000000000000000000000000000000000000000000000000000000000000000000000000000000038506f6c69637920274141564520436f6d706c6574652041565320506c7567696e2720617574686f72697a6564207472616e73616374696f6e0000000000000000",
          "blockHash": "0xde7dbc6bf16479f7c93bbb1abd8da7fc2ac998ec08c1f5f42d1ffd831733a646",
          "blockNumber": "0x16137f1",
          "transactionHash": "0xd744080c14aa601828462c9398212afba853075789b40bbfd530ff0d5f16cfbf",
          "transactionIndex": "0x19",
          "logIndex": "0x89",
          "removed": false
        }
      ],
      "logsBloom": "0x00010000000000808000200000800000000000008000000000800000002000000000000000000000000000000000080000800002000000000000000000000800000000000000400000800000000000000000080001000000000000000000000000000000100000000000020000000000010000000000008008000800000000000000000800000002000000000008100000000080000000000000000000800000000000000000008000000200000000004200000000000000000000000000000000001000000000000000000100000000100000000000000000000000000004000000400000000000000000000000000000000402000000000000000008000400",
      "type": "0x2",
      "transactionHash": "0xd744080c14aa601828462c9398212afba853075789b40bbfd530ff0d5f16cfbf",
      "transactionIndex": "0x19",
      "blockHash": "0xde7dbc6bf16479f7c93bbb1abd8da7fc2ac998ec08c1f5f42d1ffd831733a646",
      "blockNumber": "0x16137f1",
      "gasUsed": "0x36234",
      "effectiveGasPrice": "0x10b358",
      "from": "0xeb0d8736cc2c47882f112507cc8a3355d37d2413",
      "to": "0x201ce172d07566bea747d18848534f4d8adbe69f",
      "contractAddress": null,
      "l1BaseFeeScalar": "0x44d",
      "l1BlobBaseFee": "0x1",
      "l1BlobBaseFeeScalar": "0xa118b",
      "l1Fee": "0x1e29f073e",
      "l1GasPrice": "0x6bb41ad1",
      "l1GasUsed": "0xfe5"
    }
  ],
  "libraries": [],
  "pending": [],
  "returns": {},
  "timestamp": 1742065347,
  "chain": 84532,
  "commit": "31296e3"
}