{
  "transactions": [
    {
      "hash": "0xb6de517d7cb8d45f0eb420fae9c2413d0b10158239e734b45b34eace94df190e",
      "transactionType": "CREATE",
      "contractName": "CrosschainSender",
      "contractAddress": "0xbaa13540352b843bff22d2f789e75123e79ea390",
      "function": null,
      "arguments": [
        "0x6966b0E55883d49BFB24539356a2f8A673E02039",
        "534351",
        "0xF74b80f52e2D4fEe2435A5eC1c83f13DB14A24C6",
        "0xcE2c6cd7ab51837E6F0f2313D45D443F79097Dd5"
      ],
      "transaction": {
        "from": "0xeb0d8736cc2c47882f112507cc8a3355d37d2413",
        "gas": "0xf6247",
        "value": "0x0",
        "input": "0x610100604052346100815761001e61001561019a565b929190916101f5565b610026610086565b610cf061020d8239608051818181610371015281816109f00152610ace015260a05181818160a301528181610a1e0152610b01015260c0518181816102df01528181610a460152610b29015260e051816104230152610cf090f35b61008c565b60405190565b5f80fd5b601f801991011690565b634e487b7160e01b5f52604160045260245ffd5b906100b890610090565b810190811060018060401b038211176100d057604052565b61009a565b906100e86100e1610086565b92836100ae565b565b5f80fd5b60018060a01b031690565b610102906100ee565b90565b61010e816100f9565b0361011557565b5f80fd5b9050519061012682610105565b565b63ffffffff1690565b61013a81610128565b0361014157565b5f80fd5b9050519061015282610131565b565b6080818303126101955761016a825f8301610119565b9261019261017b8460208501610145565b936101898160408601610119565b93606001610119565b90565b6100ea565b6101b8610efd803803806101ad816100d5565b928339810190610154565b90919293565b90565b6101d56101d06101da926100ee565b6101be565b6100ee565b90565b6101e6906101c1565b90565b6101f2906101dd565b90565b6101fe906101e9565b60805260a05260c05260e05256fe60806040526004361015610015575b366104aa57005b61001f5f3561007e565b80632858c55a14610079578063502f5bd0146100745780639341effc1461006f578063d5438eae1461006a578063d92807a2146100655763dd1a53870361000e5761047a565b610445565b6103ec565b61033a565b6102ab565b6100f0565b60e01c90565b60405190565b5f80fd5b5f80fd5b5f91031261009c57565b61008e565b7f000000000000000000000000000000000000000000000000000000000000000090565b63ffffffff1690565b6100d7906100c5565b9052565b91906100ee905f602085019401906100ce565b565b3461012057610100366004610092565b61011c61010b6100a1565b610113610084565b918291826100db565b0390f35b61008a565b5f80fd5b5f80fd5b9081608091031261013b5790565b610129565b151590565b61014e81610140565b0361015557565b5f80fd5b9050359061016682610145565b565b5f80fd5b5f80fd5b5f80fd5b909182601f830112156101ae5781359167ffffffffffffffff83116101a95760200192600183028401116101a457565b610170565b61016c565b610168565b919060206002028301116101c357565b610170565b909182601f830112156102025781359167ffffffffffffffff83116101fd5760200192602083028401116101f857565b610170565b61016c565b610168565b60c0818303126102a1575f81013567ffffffffffffffff811161029c578261023091830161012d565b9261023e8360208401610159565b92604083013567ffffffffffffffff8111610297578161025f918501610174565b92909361026f83606083016101b3565b9260a082013567ffffffffffffffff81116102925761028e92016101c8565b9091565b610125565b610125565b610125565b61008e565b5f0190565b346102d8576102bb366004610207565b505050505050506102ca610084565b806102d4816102a6565b0390f35b61008a565b7f000000000000000000000000000000000000000000000000000000000000000090565b60018060a01b031690565b61031590610301565b90565b6103219061030c565b9052565b9190610338905f60208501940190610318565b565b3461036a5761034a366004610092565b6103666103556102dd565b61035d610084565b91829182610325565b0390f35b61008a565b7f000000000000000000000000000000000000000000000000000000000000000090565b90565b6103aa6103a56103af92610301565b610393565b610301565b90565b6103bb90610396565b90565b6103c7906103b2565b90565b6103d3906103be565b9052565b91906103ea905f602085019401906103ca565b565b3461041c576103fc366004610092565b61041861040761036f565b61040f610084565b918291826103d7565b0390f35b61008a565b7f000000000000000000000000000000000000000000000000000000000000000090565b3461047557610455366004610092565b610471610460610421565b610468610084565b91829182610325565b0390f35b61008a565b610494610488366004610207565b95949094939193610978565b61049c610084565b806104a6816102a6565b0390f35b5f80fd5b5f80fd5b5f80fd5b5f80fd5b9035906001602003813603038212156104fc570180359067ffffffffffffffff82116104f7576020019160018202360383136104f257565b6104b6565b6104b2565b6104ae565b5f80fd5b601f801991011690565b634e487b7160e01b5f52604160045260245ffd5b9061052d90610505565b810190811067ffffffffffffffff82111761054757604052565b61050f565b9061055f610558610084565b9283610523565b565b67ffffffffffffffff811161057f5761057b602091610505565b0190565b61050f565b90825f939282370152565b909291926105a461059f82610561565b61054c565b938185526020850190828401116105c0576105be92610584565b565b610501565b6105d091369161058f565b90565b903590600160200381360303821215610615570180359067ffffffffffffffff82116106105760200191600182023603831361060b57565b6104b6565b6104b2565b6104ae565b61ffff1690565b61062a8161061a565b0361063157565b5f80fd5b3561063f81610621565b90565b5190565b60209181520190565b90825f9392825e0152565b6106796106826020936106879361067081610642565b93848093610646565b9586910161064f565b610505565b0190565b60209181520190565b91906106ae816106a7816106b39561068b565b8095610584565b610505565b0190565b6106c09061061a565b9052565b9493916106f4906106fc946106e660409460608a01908a82035f8c015261065a565b9188830360208a0152610694565b9401906106b7565b565b60e01b90565b90565b61071081610704565b0361071757565b5f80fd5b9050519061072882610707565b565b9060208282031261074357610740915f0161071b565b90565b61008e565b90565b61075490610748565b9052565b5190565b61077b6107846020936107899361077281610758565b9384809361068b565b9586910161064f565b610505565b0190565b6107b16107be9492936107a760608401955f8501906100ce565b602083019061074b565b604081840391015261075c565b90565b6107c9610084565b3d5f823e3d90fd5b6107da906103b2565b90565b60207f696e206d65737361676500000000000000000000000000000000000000000000917f496e73756666696369656e742066756e647320666f722063726f73732d6368615f8201520152565b610837602a604092610646565b610840816107dd565b0190565b6108599060208101905f81830391015261082a565b90565b1561086357565b61086b610084565b62461bcd60e51b81528061088160048201610844565b0390fd5b61088e81610748565b0361089557565b5f80fd5b905051906108a682610885565b565b906020828203126108c1576108be915f01610899565b90565b61008e565b5f1c90565b6108df6108da6108e492610704565b610393565b610704565b90565b6108f36108f8916108c6565b6108cb565b90565b61090490610704565b9052565b61091c6109176109219261061a565b610393565b610704565b90565b61092d90610908565b9052565b9594926109769461096061096e9360609561095360808c01925f8d01906108fb565b8a820360208c015261065a565b9188830360408a0152610694565b940190610924565b565b955092505050610989915015610140565b610c45576109a361099d825f8101906104ba565b906105c5565b6109dc6109eb826109b88560208101906105d3565b6109c760608896939601610635565b906109d0610084565b958694602086016106c4565b60208201810382520382610523565b610a147f00000000000000000000000000000000000000000000000000000000000000006103be565b6020639c42bd18917f000000000000000000000000000000000000000000000000000000000000000090610a83610a6a7f0000000000000000000000000000000000000000000000000000000000000000610c95565b94610a8e87610a77610084565b978896879586956106fe565b85526004850161078d565b03915afa8015610c40576020915f91610c13575b50610ac9610aaf306107d1565b31610ac2610abc84610704565b91610704565b101561085c565b610af27f00000000000000000000000000000000000000000000000000000000000000006103be565b90610b6263fa31de01919291927f000000000000000000000000000000000000000000000000000000000000000093610b6d610b4d7f0000000000000000000000000000000000000000000000000000000000000000610c95565b97610b56610084565b988997889687956106fe565b85526004850161078d565b03925af18015610c0e57610b88915f91610be0575b506108e7565b610bdb6060610ba7610b9e8660208101906105d3565b92909601610635565b907fc694db997aa6bf290770077bf817cf5889350fa738e7ca37f9bcd63a5706c7f395610bd2610084565b95869586610931565b0390a1565b610c01915060203d8111610c07575b610bf98183610523565b8101906108a8565b5f610b82565b503d610bef565b6107c1565b610c339150823d8111610c39575b610c2b8183610523565b81019061072a565b5f610aa2565b503d610c21565b6107c1565b50565b5f90565b610c5590610396565b90565b610c6c610c67610c7192610301565b610393565b610704565b90565b5f1b90565b610c8d610c88610c9292610704565b610c74565b610748565b90565b610cb2610cad610cb792610ca7610c48565b50610c4c565b610c58565b610c79565b9056fea26469706673582212200209687c4d76df46b502d8d7b9a0d73328d8fee6954490eca060962f793c484b64736f6c634300081c00330000000000000000000000006966b0e55883d49bfb24539356a2f8a673e02039000000000000000000000000000000000000000000000000000000000008274f000000000000000000000000f74b80f52e2d4fee2435a5ec1c83f13db14a24c6000000000000000000000000ce2c6cd7ab51837e6f0f2313d45d443f79097dd5",
        "nonce": "0x2a",
        "chainId": "0x14a34"
      },
      "additionalContracts": [],
      "isFixedGasLimit": false
    },
    {
      "hash": "0x87a3a737f4b6427520416b1a058e8407b355e5eacab6f2b8287c7657b7965864",
      "transactionType": "CALL",
      "contractName": null,
      "contractAddress": "0xbaa13540352b843bff22d2f789e75123e79ea390",
      "function": null,
      "arguments": null,
      "transaction": {
        "from": "0xeb0d8736cc2c47882f112507cc8a3355d37d2413",
        "to": "0xbaa13540352b843bff22d2f789e75123e79ea390",
        "gas": "0x784d",
        "value": "0x2386f26fc10000",
        "input": "0x",
        "nonce": "0x2b",
        "chainId": "0x14a34"
      },
      "additionalContracts": [],
      "isFixedGasLimit": false
    },
    {
      "hash": "0xe627ff2eda8893a3b6c0a151a12e647c63d3fefc0443ddb771b510e7dc5075b8",
      "transactionType": "CALL",
      "contractName": null,
      "contractAddress": "0xce2c6cd7ab51837e6f0f2313d45d443f79097dd5",
      "function": "setAvsLogic(address)",
      "arguments": [
        "0xbAa13540352b843bFf22d2F789E75123E79ea390"
      ],
      "transaction": {
        "from": "0xeb0d8736cc2c47882f112507cc8a3355d37d2413",
        "to": "0xce2c6cd7ab51837e6f0f2313d45d443f79097dd5",
        "gas": "0xeb64",
        "value": "0x0",
        "input": "0x008fd386000000000000000000000000baa13540352b843bff22d2f789e75123e79ea390",
        "nonce": "0x2c",
        "chainId": "0x14a34"
      },
      "additionalContracts": [],
      "isFixedGasLimit": false
    },
    {
      "hash": "0xa4110cd8cee7c3d02956c6685f14201d926a0d2e70657298903bb32042daeb1f",
      "transactionType": "CALL",
      "contractName": "CrosschainSender",
      "contractAddress": "0xbaa13540352b843bff22d2f789e75123e79ea390",
      "function": "afterTaskSubmission((string,bytes,address,uint16),bool,bytes,uint256[2],uint256[])",
      "arguments": [
        "(QmZkk2Y7c9A9wKgWh3FGRPSRkfZPvFmRmnCBQuqHHESpBb, 0x7b22747855554944223a22307833303738333433333634363336313337363330303030303030303030303030303030303030303030303030303030303030303030303030303030303030303030222c226167656e744964223a302c2274696d657374616d70223a313734313937393633323536312c22737461747573223a22415050524f564544222c22726561736f6e223a22506f6c69637920274141564520436f6d706c6574652041565320506c7567696e2720617574686f72697a6564207472616e73616374696f6e227d, 0x0000000000000000000000000000000000000000, 0)",
        "true",
        "0x3078",
        "[1, 2]",
        "[]"
      ],
      "transaction": {
        "from": "0xeb0d8736cc2c47882f112507cc8a3355d37d2413",
        "to": "0xbaa13540352b843bff22d2f789e75123e79ea390",
        "gas": "0x48f91",
        "value": "0x0",
        "input": "0xdd1a538700000000000000000000000000000000000000000000000000000000000000c0000000000000000000000000000000000000000000000000000000000000000100000000000000000000000000000000000000000000000000000000000002a00000000000000000000000000000000000000000000000000000000000000001000000000000000000000000000000000000000000000000000000000000000200000000000000000000000000000000000000000000000000000000000002e0000000000000000000000000000000000000000000000000000000000000008000000000000000000000000000000000000000000000000000000000000000e000000000000000000000000000000000000000000000000000000000000000000000000000000000000000000000000000000000000000000000000000000000000000000000000000000000000000000000000000000000000000000000002e516d5a6b6b32593763394139774b675768334647525053526b665a5076466d526d6e43425175714848455370426200000000000000000000000000000000000000000000000000000000000000000000000000000000000000000000000000cd7b22747855554944223a22307833303738333433333634363336313337363330303030303030303030303030303030303030303030303030303030303030303030303030303030303030303030222c226167656e744964223a302c2274696d657374616d70223a313734313937393633323536312c22737461747573223a22415050524f564544222c22726561736f6e223a22506f6c69637920274141564520436f6d706c6574652041565320506c7567696e2720617574686f72697a6564207472616e73616374696f6e227d00000000000000000000000000000000000000000000000000000000000000000000000000000000000000000000000000000230780000000000000000000000000000000000000000000000000000000000000000000000000000000000000000000000000000000000000000000000000000",
        "nonce": "0x2d",
        "chainId": "0x14a34"
      },
      "additionalContracts": [],
      "isFixedGasLimit": false
    }
  ],
  "receipts": [
    {
      "status": "0x1",
      "cumulativeGasUsed": "0x4228d5",
      "logs": [],
      "logsBloom": "0x00000000000000000000000000000000000000000000000000000000000000000000000000000000000000000000000000000000000000000000000000000000000000000000000000000000000000000000000000000000000000000000000000000000000000000000000000000000000000000000000000000000000000000000000000000000000000000000000000000000000000000000000000000000000000000000000000000000000000000000000000000000000000000000000000000000000000000000000000000000000000000000000000000000000000000000000000000000000000000000000000000000000000000000000000000000",
      "type": "0x2",
      "transactionHash": "0xb6de517d7cb8d45f0eb420fae9c2413d0b10158239e734b45b34eace94df190e",
      "transactionIndex": "0x19",
      "blockHash": "0xcbdbecacaaa08f6202d508f7b5247a0d3eda1670d25fd19cc65f0513162bf0ca",
      "blockNumber": "0x160d739",
      "gasUsed": "0xbd572",
      "effectiveGasPrice": "0x184389",
      "from": "0xeb0d8736cc2c47882f112507cc8a3355d37d2413",
      "to": null,
      "contractAddress": "0xbaa13540352b843bff22d2f789e75123e79ea390",
      "l1BaseFeeScalar": "0x44d",
      "l1BlobBaseFee": "0x1",
      "l1BlobBaseFeeScalar": "0xa118b",
      "l1Fee": "0x114dc858",
      "l1GasPrice": "0x68fee9",
      "l1GasUsed": "0x95af"
    },
    {
      "status": "0x1",
      "cumulativeGasUsed": "0x78052b",
      "logs": [],
      "logsBloom": "0x00000000000000000000000000000000000000000000000000000000000000000000000000000000000000000000000000000000000000000000000000000000000000000000000000000000000000000000000000000000000000000000000000000000000000000000000000000000000000000000000000000000000000000000000000000000000000000000000000000000000000000000000000000000000000000000000000000000000000000000000000000000000000000000000000000000000000000000000000000000000000000000000000000000000000000000000000000000000000000000000000000000000000000000000000000000",
      "type": "0x2",
      "transactionHash": "0x87a3a737f4b6427520416b1a058e8407b355e5eacab6f2b8287c7657b7965864",
      "transactionIndex": "0x29",
      "blockHash": "0xcbdbecacaaa08f6202d508f7b5247a0d3eda1670d25fd19cc65f0513162bf0ca",
      "blockNumber": "0x160d739",
      "gasUsed": "0x5242",
      "effectiveGasPrice": "0x184389",
      "from": "0xeb0d8736cc2c47882f112507cc8a3355d37d2413",
      "to": "0xbaa13540352b843bff22d2f789e75123e79ea390",
      "contractAddress": null,
      "l1BaseFeeScalar": "0x44d",
      "l1BlobBaseFee": "0x1",
      "l1BlobBaseFeeScalar": "0xa118b",
      "l1Fee": "0xb8f625",
      "l1GasPrice": "0x68fee9",
      "l1GasUsed": "0x640"
    },
    {
      "status": "0x1",
      "cumulativeGasUsed": "0x78af97",
      "logs": [
        {
          "address": "0xce2c6cd7ab51837e6f0f2313d45d443f79097dd5",
          "topics": [
            "0xdf0d3b0bf99a87fc195d045bc7ec61d3e2619e6a49dd3f5cb69102b8c9702034"
          ],
          "data": "0x000000000000000000000000baa13540352b843bff22d2f789e75123e79ea390",
          "blockHash": "0xcbdbecacaaa08f6202d508f7b5247a0d3eda1670d25fd19cc65f0513162bf0ca",
          "blockNumber": "0x160d739",
          "transactionHash": "0xe627ff2eda8893a3b6c0a151a12e647c63d3fefc0443ddb771b510e7dc5075b8",
          "transactionIndex": "0x2a",
          "logIndex": "0xb4",
          "removed": false
        }
      ],
      "logsBloom": "0x00000000000000000000000000000000000000000000000000000008000000000000000000000000000000000000000000000000000000000000000000000000000000000000000000000000000000000000800000000000000000000000000000000000000000000000000000000000000000000000000200000000000000000000000000000000000000000000000000000000000000000000000000000000000000000000000000000000000000000000000000000000000000000040000000000000000000000000000000000000000000000000000000000000000000000000000040000000000000000000000000000000000000000000000000100000",
      "type": "0x2",
      "transactionHash": "0xe627ff2eda8893a3b6c0a151a12e647c63d3fefc0443ddb771b510e7dc5075b8",
      "transactionIndex": "0x2a",
      "blockHash": "0xcbdbecacaaa08f6202d508f7b5247a0d3eda1670d25fd19cc65f0513162bf0ca",
      "blockNumber": "0x160d739",
      "gasUsed": "0xaa6c",
      "effectiveGasPrice": "0x184389",
      "from": "0xeb0d8736cc2c47882f112507cc8a3355d37d2413",
      "to": "0xce2c6cd7ab51837e6f0f2313d45d443f79097dd5",
      "contractAddress": null,
      "l1BaseFeeScalar": "0x44d",
      "l1BlobBaseFee": "0x1",
      "l1BlobBaseFeeScalar": "0xa118b",
      "l1Fee": "0xb8f625",
      "l1GasPrice": "0x68fee9",
      "l1GasUsed": "0x640"
    },
    {
      "status": "0x1",
      "cumulativeGasUsed": "0x7bfce4",
      "logs": [
        {
          "address": "0x6966b0e55883d49bfb24539356a2f8a673e02039",
          "topics": [
            "0x769f711d20c679153d382254f59892613b58a97cc876b249134ac25c80f9c814",
            "0x000000000000000000000000baa13540352b843bff22d2f789e75123e79ea390",
            "0x000000000000000000000000000000000000000000000000000000000008274f",
            "0x000000000000000000000000f74b80f52e2d4fee2435a5ec1c83f13db14a24c6"
          ],
          "data": "0x0000000000000000000000000000000000000000000000000000000000000020000000000000000000000000000000000000000000000000000000000000020d0300009c9500014a34000000000000000000000000baa13540352b843bff22d2f789e75123e79ea3900008274f000000000000000000000000f74b80f52e2d4fee2435a5ec1c83f13db14a24c6000000000000000000000000000000000000000000000000000000000000006000000000000000000000000000000000000000000000000000000000000000c00000000000000000000000000000000000000000000000000000000000000000000000000000000000000000000000000000000000000000000000000000002e516d5a6b6b32593763394139774b675768334647525053526b665a5076466d526d6e43425175714848455370426200000000000000000000000000000000000000000000000000000000000000000000000000000000000000000000000000cd7b22747855554944223a22307833303738333433333634363336313337363330303030303030303030303030303030303030303030303030303030303030303030303030303030303030303030222c226167656e744964223a302c2274696d657374616d70223a313734313937393633323536312c22737461747573223a22415050524f564544222c22726561736f6e223a22506f6c69637920274141564520436f6d706c6574652041565320506c7567696e2720617574686f72697a6564207472616e73616374696f6e227d0000000000000000000000000000000000000000000000000000000000000000000000000000",
          "blockHash": "0xcbdbecacaaa08f6202d508f7b5247a0d3eda1670d25fd19cc65f0513162bf0ca",
          "blockNumber": "0x160d739",
          "transactionHash": "0xa4110cd8cee7c3d02956c6685f14201d926a0d2e70657298903bb32042daeb1f",
          "transactionIndex": "0x2b",
          "logIndex": "0xb5",
          "removed": false
        },
        {
          "address": "0x6966b0e55883d49bfb24539356a2f8a673e02039",
          "topics": [
            "0x788dbc1b7152732178210e7f4d9d010ef016f9eafbe66786bd7169f56e0c353a",
            "0xf5da8b516aba5663caf9f3be7ce1a2cce119e9080f94a6635322c7bb4ac50f72"
          ],
          "data": "0x",
          "blockHash": "0xcbdbecacaaa08f6202d508f7b5247a0d3eda1670d25fd19cc65f0513162bf0ca",
          "blockNumber": "0x160d739",
          "transactionHash": "0xa4110cd8cee7c3d02956c6685f14201d926a0d2e70657298903bb32042daeb1f",
          "transactionIndex": "0x2b",
          "logIndex": "0xb6",
          "removed": false
        },
        {
          "address": "0x28b02b97a850872c4d33c3e024fab6499ad96564",
          "topics": [
            "0x65695c3748edae85a24cc2c60b299b31f463050bc259150d2e5802ec8d11720a",
            "0xf5da8b516aba5663caf9f3be7ce1a2cce119e9080f94a6635322c7bb4ac50f72",
            "0x000000000000000000000000000000000000000000000000000000000008274f"
          ],
          "data": "0x00000000000000000000000000000000000000000000000000000000000314ee00000000000000000000000000000000000000000000000000000acd68660ce0",
          "blockHash": "0xcbdbecacaaa08f6202d508f7b5247a0d3eda1670d25fd19cc65f0513162bf0ca",
          "blockNumber": "0x160d739",
          "transactionHash": "0xa4110cd8cee7c3d02956c6685f14201d926a0d2e70657298903bb32042daeb1f",
          "transactionIndex": "0x2b",
          "logIndex": "0xb7",
          "removed": false
        },
        {
          "address": "0x86fb9f1c124fb20ff130c41a79a432f770f67afd",
          "topics": [
            "0x253a3a04cab70d47c1504809242d9350cd81627b4f1d50753e159cf8cd76ed33"
          ],
          "data": "0xf5da8b516aba5663caf9f3be7ce1a2cce119e9080f94a6635322c7bb4ac50f720000000000000000000000000000000000000000000000000000000000009acd",
          "blockHash": "0xcbdbecacaaa08f6202d508f7b5247a0d3eda1670d25fd19cc65f0513162bf0ca",
          "blockNumber": "0x160d739",
          "transactionHash": "0xa4110cd8cee7c3d02956c6685f14201d926a0d2e70657298903bb32042daeb1f",
          "transactionIndex": "0x2b",
          "logIndex": "0xb8",
          "removed": false
        },
        {
          "address": "0xbaa13540352b843bff22d2f789e75123e79ea390",
          "topics": [
            "0xc694db997aa6bf290770077bf817cf5889350fa738e7ca37f9bcd63a5706c7f3"
          ],
          "data": "0xf5da8b516aba5663caf9f3be7ce1a2cce119e9080f94a6635322c7bb4ac50f72000000000000000000000000000000000000000000000000000000000000008000000000000000000000000000000000000000000000000000000000000000e00000000000000000000000000000000000000000000000000000000000000000000000000000000000000000000000000000000000000000000000000000002e516d5a6b6b32593763394139774b675768334647525053526b665a5076466d526d6e43425175714848455370426200000000000000000000000000000000000000000000000000000000000000000000000000000000000000000000000000cd7b22747855554944223a22307833303738333433333634363336313337363330303030303030303030303030303030303030303030303030303030303030303030303030303030303030303030222c226167656e744964223a302c2274696d657374616d70223a313734313937393633323536312c22737461747573223a22415050524f564544222c22726561736f6e223a22506f6c69637920274141564520436f6d706c6574652041565320506c7567696e2720617574686f72697a6564207472616e73616374696f6e227d00000000000000000000000000000000000000",
          "blockHash": "0xcbdbecacaaa08f6202d508f7b5247a0d3eda1670d25fd19cc65f0513162bf0ca",
          "blockNumber": "0x160d739",
          "transactionHash": "0xa4110cd8cee7c3d02956c6685f14201d926a0d2e70657298903bb32042daeb1f",
          "transactionIndex": "0x2b",
          "logIndex": "0xb9",
          "removed": false
        }
      ],
      "logsBloom": "0x00010000000008808000200000800000000000008000000000000020002000000000000000000000000000000000080000800000000000000000000000040800000000000000000000840000000000000000080000000000008000000000000000000000100000000000020000000000000000000000000000000800000000000000000000000002010000000008000000000000000000000000000000800000000000080000000000000200000000004200000000000000000000000000000000001000000000002000000100000000100000000000000000800000000000000000400000000001000000000100000000000402000000000000000000000400",
      "type": "0x2",
      "transactionHash": "0xa4110cd8cee7c3d02956c6685f14201d926a0d2e70657298903bb32042daeb1f",
      "transactionIndex": "0x2b",
      "blockHash": "0xcbdbecacaaa08f6202d508f7b5247a0d3eda1670d25fd19cc65f0513162bf0ca",
      "blockNumber": "0x160d739",
      "gasUsed": "0x34d4d",
      "effectiveGasPrice": "0x184389",
      "from": "0xeb0d8736cc2c47882f112507cc8a3355d37d2413",
      "to": "0xbaa13540352b843bff22d2f789e75123e79ea390",
      "contractAddress": null,
      "l1BaseFeeScalar": "0x44d",
      "l1BlobBaseFee": "0x1",
      "l1BlobBaseFeeScalar": "0xa118b",
      "l1Fee": "0x231c66b",
      "l1GasPrice": "0x68fee9",
      "l1GasUsed": "0x12fb"
    }
  ],
  "libraries": [],
  "pending": [],
  "returns": {},
  "timestamp": 1742015865,
  "chain": 84532,
  "commit": "dbab284"
}