{
  "transactions": [
    {
      "hash": "0xb00c3d8d629f41c23f60705550b6c30e3a95110c556a0d306dd7f0d5e439dc2d",
      "transactionType": "CREATE",
      "contractName": "CrosschainSender",
      "contractAddress": "0xa06a0a7c9bb956a554aeaced7995fde1b62f9fcc",
      "function": null,
      "arguments": [
        "0x6966b0E55883d49BFB24539356a2f8A673E02039",
        "534351",
        "0x206d28Abb8e1b753c438D46B183Fe1d47e4e9615",
        "0xcE2c6cd7ab51837E6F0f2313D45D443F79097Dd5"
      ],
      "transaction": {
        "from": "0xeb0d8736cc2c47882f112507cc8a3355d37d2413",
        "gas": "0x1b0267",
        "value": "0x0",
        "input": "0x610100604052346100815761001e61001561019a565b929190916101f5565b610026610086565b61178661020d823960805181818161037101528181610adb0152610bb9015260a05181818160a301528181610b090152610bec015260c0518181816102df01528181610b310152610c14015260e05181610423015261178690f35b61008c565b60405190565b5f80fd5b601f801991011690565b634e487b7160e01b5f52604160045260245ffd5b906100b890610090565b810190811060018060401b038211176100d057604052565b61009a565b906100e86100e1610086565b92836100ae565b565b5f80fd5b60018060a01b031690565b610102906100ee565b90565b61010e816100f9565b0361011557565b5f80fd5b9050519061012682610105565b565b63ffffffff1690565b61013a81610128565b0361014157565b5f80fd5b9050519061015282610131565b565b6080818303126101955761016a825f8301610119565b9261019261017b8460208501610145565b936101898160408601610119565b93606001610119565b90565b6100ea565b6101b8611993803803806101ad816100d5565b928339810190610154565b90919293565b90565b6101d56101d06101da926100ee565b6101be565b6100ee565b90565b6101e6906101c1565b90565b6101f2906101dd565b90565b6101fe906101e9565b60805260a05260c05260e05256fe60806040526004361015610015575b366104aa57005b61001f5f3561007e565b80632858c55a14610079578063502f5bd0146100745780639341effc1461006f578063d5438eae1461006a578063d92807a2146100655763dd1a53870361000e5761047a565b610445565b6103ec565b61033a565b6102ab565b6100f0565b60e01c90565b60405190565b5f80fd5b5f80fd5b5f91031261009c57565b61008e565b7f000000000000000000000000000000000000000000000000000000000000000090565b63ffffffff1690565b6100d7906100c5565b9052565b91906100ee905f602085019401906100ce565b565b3461012057610100366004610092565b61011c61010b6100a1565b610113610084565b918291826100db565b0390f35b61008a565b5f80fd5b5f80fd5b9081608091031261013b5790565b610129565b151590565b61014e81610140565b0361015557565b5f80fd5b9050359061016682610145565b565b5f80fd5b5f80fd5b5f80fd5b909182601f830112156101ae5781359167ffffffffffffffff83116101a95760200192600183028401116101a457565b610170565b61016c565b610168565b919060206002028301116101c357565b610170565b909182601f830112156102025781359167ffffffffffffffff83116101fd5760200192602083028401116101f857565b610170565b61016c565b610168565b60c0818303126102a1575f81013567ffffffffffffffff811161029c578261023091830161012d565b9261023e8360208401610159565b92604083013567ffffffffffffffff8111610297578161025f918501610174565b92909361026f83606083016101b3565b9260a082013567ffffffffffffffff81116102925761028e92016101c8565b9091565b610125565b610125565b610125565b61008e565b5f0190565b346102d8576102bb366004610207565b505050505050506102ca610084565b806102d4816102a6565b0390f35b61008a565b7f000000000000000000000000000000000000000000000000000000000000000090565b60018060a01b031690565b61031590610301565b90565b6103219061030c565b9052565b9190610338905f60208501940190610318565b565b3461036a5761034a366004610092565b6103666103556102dd565b61035d610084565b91829182610325565b0390f35b61008a565b7f000000000000000000000000000000000000000000000000000000000000000090565b90565b6103aa6103a56103af92610301565b610393565b610301565b90565b6103bb90610396565b90565b6103c7906103b2565b90565b6103d3906103be565b9052565b91906103ea905f602085019401906103ca565b565b3461041c576103fc366004610092565b61041861040761036f565b61040f610084565b918291826103d7565b0390f35b61008a565b7f000000000000000000000000000000000000000000000000000000000000000090565b3461047557610455366004610092565b610471610460610421565b610468610084565b91829182610325565b0390f35b61008a565b610494610488366004610207565b95949094939193610a14565b61049c610084565b806104a6816102a6565b0390f35b5f80fd5b5f80fd5b5f80fd5b5f80fd5b9035906001602003813603038212156104fc570180359067ffffffffffffffff82116104f7576020019160018202360383136104f257565b6104b6565b6104b2565b6104ae565b91565b5f80fd5b601f801991011690565b634e487b7160e01b5f52604160045260245ffd5b9061053090610508565b810190811067ffffffffffffffff82111761054a57604052565b610512565b9061056261055b610084565b9283610526565b565b67ffffffffffffffff81116105825761057e602091610508565b0190565b610512565b90825f939282370152565b909291926105a76105a282610564565b61054f565b938185526020850190828401116105c3576105c192610587565b565b610504565b6105d3913691610592565b90565b90565b6105e2906105d6565b9052565b90565b6105f2906105e6565b9052565b5190565b60209181520190565b90825f9392825e0152565b61062d61063660209361063b93610624816105f6565b938480936105fa565b95869101610603565b610508565b0190565b9361067461068f969461066a6106819561066060a08a01965f8b01906105d9565b60208901906105e9565b60408701906105e9565b848203606086015261060e565b91608081840391015261060e565b90565b9035906001602003813603038212156106d4570180359067ffffffffffffffff82116106cf576020019160018202360383136106ca57565b6104b6565b6104b2565b6104ae565b91906106f3816106ec816106f8956105fa565b8095610587565b610508565b0190565b95919461073c61075395610732610727610746956107619c9a60c08d01918d5f8185039101526106d9565b9660208b01906105d9565b60408901906105e9565b60608701906105e9565b848203608086015261060e565b9160a081840391015261060e565b90565b60e01b90565b610773816105e6565b0361077a57565b5f80fd5b9050519061078b8261076a565b565b906020828203126107a6576107a3915f0161077e565b90565b61008e565b5190565b60209181520190565b6107d76107e06020936107e5936107ce816107ab565b938480936107af565b95869101610603565b610508565b0190565b61080d61081a94929361080360608401955f8501906100ce565b60208301906105d9565b60408184039101526107b8565b90565b610825610084565b3d5f823e3d90fd5b610836906103b2565b90565b60207f696e206d65737361676500000000000000000000000000000000000000000000917f496e73756666696369656e742066756e647320666f722063726f73732d6368615f8201520152565b610893602a6040926105fa565b61089c81610839565b0190565b6108b59060208101905f818303910152610886565b90565b156108bf57565b6108c7610084565b62461bcd60e51b8152806108dd600482016108a0565b0390fd5b6108ea816105d6565b036108f157565b5f80fd5b90505190610902826108e1565b565b9060208282031261091d5761091a915f016108f5565b90565b61008e565b5f1c90565b61093b610936610940926105e6565b610393565b6105e6565b90565b61094f61095491610922565b610927565b90565b61ffff1690565b61096781610957565b0361096e57565b5f80fd5b3561097c8161095e565b90565b9190610999816109928161099e956107af565b8095610587565b610508565b0190565b6109b66109b16109bb92610957565b610393565b6105e6565b90565b6109c7906109a2565b9052565b96959390946109fc88606095610a0a956109ef610a129a5f608086019501906105e9565b8b830360208d01526106d9565b9188830360408a015261097f565b9401906109be565b565b955092505050610a25915015610140565b610d4357610ac7610ad6610a57610a52610a4c610a468660208101906104ba565b90610501565b906105c8565b610f09565b90939592919386838691610a9a8486907fc258815eb0a1f2440f7f553879513276ef63bc429da850c8aae677403d0ba28795610a91610084565b9586958661063f565b0390a1610aaa885f810190610692565b959095979390919293610abb610084565b988997602089016106fc565b60208201810382520382610526565b610aff7f00000000000000000000000000000000000000000000000000000000000000006103be565b6020639c42bd18917f000000000000000000000000000000000000000000000000000000000000000090610b6e610b557f0000000000000000000000000000000000000000000000000000000000000000611010565b94610b7987610b62610084565b97889687958695610764565b8552600485016107e9565b03915afa8015610d3e576020915f91610d11575b50610bb4610b9a3061082d565b31610bad610ba7846105e6565b916105e6565b10156108b8565b610bdd7f00000000000000000000000000000000000000000000000000000000000000006103be565b90610c4d63fa31de01919291927f000000000000000000000000000000000000000000000000000000000000000093610c58610c387f0000000000000000000000000000000000000000000000000000000000000000611010565b97610c41610084565b98899788968795610764565b8552600485016107e9565b03925af1908115610d0c57610cd991610c78915f91610cde575b50610943565b610c85835f810190610692565b929092936060610ca5610c9c8360208101906104ba565b92909301610972565b917fc694db997aa6bf290770077bf817cf5889350fa738e7ca37f9bcd63a5706c7f396610cd0610084565b968796876109cb565b0390a1565b610cff915060203d8111610d05575b610cf78183610526565b810190610904565b5f610c72565b503d610ced565b61081d565b610d319150823d8111610d37575b610d298183610526565b81019061078d565b5f610b8d565b503d610d1f565b61081d565b50565b5f90565b5f90565b606090565b90565b90610d68610d6383610564565b61054f565b918252565b5f683a3c2aaaa4a2111d1160b91b910152565b610d8a6009610d56565b90610d9760208301610d6d565b565b610da1610d80565b90565b5f601160f91b910152565b610db96001610d56565b90610dc660208301610da4565b565b610dd0610daf565b90565b60200190565b610de390516105d6565b90565b1b90565b610e04610dff610df9836107ab565b92610dd3565b610dd9565b9060208110610e12575b5090565b610e24905f1990602003600802610de6565b165f610e0e565b5f6830b3b2b73a24b2111d60b91b910152565b610e486009610d56565b90610e5560208301610e2b565b565b610e5f610e3e565b90565b5f6a3a34b6b2b9ba30b6b8111d60a91b910152565b610e81600b610d56565b90610e8e60208301610e62565b565b610e98610e77565b90565b5f6839ba30ba3ab9911d1160b91b910152565b610eb86009610d56565b90610ec560208301610e9b565b565b610ecf610eae565b90565b5f683932b0b9b7b7111d1160b91b910152565b610eef6009610d56565b90610efc60208301610ed2565b565b610f06610ee5565b90565b610f3f90610f15610d46565b50610f1e610d4a565b50610f27610d4a565b50610f30610d4e565b50610f39610d4e565b50610d53565b610f69610f64610f5f83610f51610d99565b610f59610dc8565b91611175565b610d53565b610dea565b91610f7c82610f76610e57565b906114f6565b91610f8f81610f89610e90565b906114f6565b91610fc4610fad83610f9f610ec7565b610fa7610dc8565b91611175565b92610fb6610efe565b610fbe610dc8565b91611175565b90565b610fd090610396565b90565b610fe7610fe2610fec92610301565b610393565b6105e6565b90565b5f1b90565b61100861100361100d926105e6565b610fef565b6105d6565b90565b61102d61102861103292611022610d46565b50610fc7565b610fd3565b610ff4565b90565b90565b61104c61104761105192611035565b610393565b6105e6565b90565b600161106091016105e6565b90565b634e487b7160e01b5f52601160045260245ffd5b61108661108c919392936105e6565b926105e6565b820391821161109757565b611063565b6110ab6110b1919392936105e6565b926105e6565b82018092116110bc57565b611063565b634e487b7160e01b5f52603260045260245ffd5b906110df826107ab565b8110156110f157600160209102010190565b6110c1565b60ff60f81b1690565b61110990516110f6565b90565b67ffffffffffffffff811161112a57611126602091610508565b0190565b610512565b9061114161113c8361110c565b61054f565b918252565b369037565b906111706111588361112f565b92602080611166869361110c565b9201910390611146565b565b90565b919061118c61119291611186610d4e565b50610d53565b91610d53565b61119a610d4a565b926111a3610d4a565b906111ad5f611038565b935b846111dc6111d66111d16111c2866107ab565b6111cb866107ab565b90611077565b6105e6565b916105e6565b101561141f576001956111ee5f611038565b5b8061120a6112046111ff866107ab565b6105e6565b916105e6565b10156114165761122d611228856112228a859061109c565b906110d5565b6110ff565b61125161124b6112466112418786906110d5565b6110ff565b6110f6565b916110f6565b036112645761125f90611054565b6111ef565b50949095505f5b61127f5761127890611054565b93946111af565b6112999294506112939095919395916107ab565b9061109c565b939291925b84925b836112ce6112c86112c36112b4876107ab565b6112bd866107ab565b90611077565b6105e6565b916105e6565b101561140e576001946112e05f611038565b5b806112fc6112f66112f1866107ab565b6105e6565b916105e6565b10156114055761131f61131a8661131489859061109c565b906110d5565b6110ff565b61134361133d6113386113338786906110d5565b6110ff565b6110f6565b916110f6565b036113565761135190611054565b6112e1565b50939094505f5b6113715761136a90611054565b92936112a1565b9193509150915b61138b611386848690611077565b61114b565b916113955f611038565b5b806113b36113ad6113a8888a90611077565b6105e6565b916105e6565b10156113f4576113ef906113da6113d5856113cf8a859061109c565b906110d5565b6110ff565b6113e9869183905f1a926110d5565b53611054565b611396565b509350506114029150611172565b90565b5093909461135d565b509150611378565b5094909561126b565b50919250929361129e565b600b60fa1b90565b607d60f81b90565b600360fc1b90565b603960f81b90565b90565b61146161145c6114669261144a565b610393565b6105e6565b90565b61147861147e919392936105e6565b926105e6565b9161148a8382026105e6565b92818404149015171561149957565b611063565b60f81c90565b60ff1690565b6114be6114b96114c3926114a4565b610393565b6114a4565b90565b6114d26114d79161149e565b6114aa565b90565b6114ee6114e96114f3926114a4565b610393565b6105e6565b90565b9061150990611503610d4a565b50610d53565b611511610d4a565b9161151b5f611038565b915b8261154a61154461153f611530866107ab565b611539866107ab565b90611077565b6105e6565b916105e6565b10156117475760019361155c5f611038565b5b8061157861157261156d866107ab565b6105e6565b916105e6565b101561173e5761159b6115968561159088859061109c565b906110d5565b6110ff565b6115bf6115b96115b46115af8786906110d5565b6110ff565b6110f6565b916110f6565b036115d2576115cd90611054565b61155d565b50929093505f5b6115ed576115e690611054565b919261151d565b61160592506115ff90939193916107ab565b9061109c565b5b61160e610d4a565b905b8061162b611625611620866107ab565b6105e6565b916105e6565b10156117365761164461163f8483906110d5565b6110ff565b8061165661165061142a565b916110f6565b14801561171d575b611715578061167c61167661167161143a565b6110f6565b916110f6565b1015806116f3575b611698575b5061169390611054565b611610565b6116ce6116ec916116c86116c36116bd61169396976116b7600a61144d565b90611469565b926114c6565b6114da565b9061109c565b6116e66116e16116dc61143a565b6114c6565b6114da565b90611077565b9190611689565b508061170e611708611703611442565b6110f6565b916110f6565b1115611684565b505090505b90565b508061173061172a611432565b916110f6565b1461165e565b50905061171a565b509290936115d9565b5091905061160656fea2646970667358221220113ca7a0c49bf5f7572009ad2f4f082fd7a5f9bbdd4c4d2f00b8f5265756351764736f6c634300081c00330000000000000000000000006966b0e55883d49bfb24539356a2f8a673e02039000000000000000000000000000000000000000000000000000000000008274f000000000000000000000000206d28abb8e1b753c438d46b183fe1d47e4e9615000000000000000000000000ce2c6cd7ab51837e6f0f2313d45d443f79097dd5",
        "nonce": "0x3a",
        "chainId": "0x14a34"
      },
      "additionalContracts": [],
      "isFixedGasLimit": false
    },
    {
      "hash": "0x4c77379c8b365fbf434032dcffa60b3073dc257f5acf7dd6f9c768ede4426129",
      "transactionType": "CALL",
      "contractName": null,
      "contractAddress": "0xa06a0a7c9bb956a554aeaced7995fde1b62f9fcc",
      "function": null,
      "arguments": null,
      "transaction": {
        "from": "0xeb0d8736cc2c47882f112507cc8a3355d37d2413",
        "to": "0xa06a0a7c9bb956a554aeaced7995fde1b62f9fcc",
        "gas": "0x784d",
        "value": "0x2386f26fc10000",
        "input": "0x",
        "nonce": "0x3b",
        "chainId": "0x14a34"
      },
      "additionalContracts": [],
      "isFixedGasLimit": false
    },
    {
      "hash": "0x5a3e6a58e15043208cef441e0b48e2c73c07d18286159aea6d68fc3997c1e4b3",
      "transactionType": "CALL",
      "contractName": null,
      "contractAddress": "0xce2c6cd7ab51837e6f0f2313d45d443f79097dd5",
      "function": "setAvsLogic(address)",
      "arguments": [
        "0xa06A0A7c9bb956A554aEACed7995FdE1B62f9fCc"
      ],
      "transaction": {
        "from": "0xeb0d8736cc2c47882f112507cc8a3355d37d2413",
        "to": "0xce2c6cd7ab51837e6f0f2313d45d443f79097dd5",
        "gas": "0xeb64",
        "value": "0x0",
        "input": "0x008fd386000000000000000000000000a06a0a7c9bb956a554aeaced7995fde1b62f9fcc",
        "nonce": "0x3c",
        "chainId": "0x14a34"
      },
      "additionalContracts": [],
      "isFixedGasLimit": false
    },
    {
      "hash": "0x348858c494923a51ad42cdafd66c72b423121f9d5f73c95af02457f71c7faeec",
      "transactionType": "CALL",
      "contractName": "CrosschainSender",
      "contractAddress": "0xa06a0a7c9bb956a554aeaced7995fde1b62f9fcc",
      "function": "afterTaskSubmission((string,bytes,address,uint16),bool,bytes,uint256[2],uint256[])",
      "arguments": [
        "(QmZkk2Y7c9A9wKgWh3FGRPSRkfZPvFmRmnCBQuqHHESpBb, 0x7b22747855554944223a22307834336463623766303030303030303030303030303030303030303030303030303030303030303030303030303030303030303030303030303030303030303030222c226167656e744964223a312c2274696d657374616d70223a313734313937393633323536312c22737461747573223a22415050524f564544222c22726561736f6e223a22506f6c69637920274141564520436f6d706c6574652041565320506c7567696e2720617574686f72697a6564207472616e73616374696f6e227d, 0x0000000000000000000000000000000000000000, 0)",
        "true",
        "0x3078",
        "[1, 2]",
        "[]"
      ],
      "transaction": {
        "from": "0xeb0d8736cc2c47882f112507cc8a3355d37d2413",
        "to": "0xa06a0a7c9bb956a554aeaced7995fde1b62f9fcc",
        "gas": "0x16ca84",
        "value": "0x0",
        "input": "0xdd1a538700000000000000000000000000000000000000000000000000000000000000c0000000000000000000000000000000000000000000000000000000000000000100000000000000000000000000000000000000000000000000000000000002a00000000000000000000000000000000000000000000000000000000000000001000000000000000000000000000000000000000000000000000000000000000200000000000000000000000000000000000000000000000000000000000002e0000000000000000000000000000000000000000000000000000000000000008000000000000000000000000000000000000000000000000000000000000000e000000000000000000000000000000000000000000000000000000000000000000000000000000000000000000000000000000000000000000000000000000000000000000000000000000000000000000000000000000000000000000000002e516d5a6b6b32593763394139774b675768334647525053526b665a5076466d526d6e43425175714848455370426200000000000000000000000000000000000000000000000000000000000000000000000000000000000000000000000000cd7b22747855554944223a22307834336463623766303030303030303030303030303030303030303030303030303030303030303030303030303030303030303030303030303030303030303030222c226167656e744964223a312c2274696d657374616d70223a313734313937393633323536312c22737461747573223a22415050524f564544222c22726561736f6e223a22506f6c69637920274141564520436f6d706c6574652041565320506c7567696e2720617574686f72697a6564207472616e73616374696f6e227d00000000000000000000000000000000000000000000000000000000000000000000000000000000000000000000000000000230780000000000000000000000000000000000000000000000000000000000000000000000000000000000000000000000000000000000000000000000000000",
        "nonce": "0x3d",
        "chainId": "0x14a34"
      },
      "additionalContracts": [],
      "isFixedGasLimit": false
    }
  ],
  "receipts": [
    {
      "status": "0x1",
      "cumulativeGasUsed": "0x152fa3a",
      "logs": [],
      "logsBloom": "0x00000000000000000000000000000000000000000000000000000000000000000000000000000000000000000000000000000000000000000000000000000000000000000000000000000000000000000000000000000000000000000000000000000000000000000000000000000000000000000000000000000000000000000000000000000000000000000000000000000000000000000000000000000000000000000000000000000000000000000000000000000000000000000000000000000000000000000000000000000000000000000000000000000000000000000000000000000000000000000000000000000000000000000000000000000000",
      "type": "0x2",
      "transactionHash": "0xb00c3d8d629f41c23f60705550b6c30e3a95110c556a0d306dd7f0d5e439dc2d",
      "transactionIndex": "0x29",
      "blockHash": "0xaae29cf73158251917f36db0ffcb40e8c05226a8badf5ad991003151cb0e5454",
      "blockNumber": "0x16112ad",
      "gasUsed": "0x14c6c6",
      "effectiveGasPrice": "0x7b84f5",
      "from": "0xeb0d8736cc2c47882f112507cc8a3355d37d2413",
      "to": null,
      "contractAddress": "0xa06a0a7c9bb956a554aeaced7995fde1b62f9fcc",
      "l1BaseFeeScalar": "0x44d",
      "l1BlobBaseFee": "0x1",
      "l1BlobBaseFeeScalar": "0xa118b",
      "l1Fee": "0x1fbab3edd3",
      "l1GasPrice": "0x7292c9ae",
      "l1GasUsed": "0xfb87"
    },
    {
      "status": "0x1",
      "cumulativeGasUsed": "0x1534c7c",
      "logs": [],
      "logsBloom": "0x00000000000000000000000000000000000000000000000000000000000000000000000000000000000000000000000000000000000000000000000000000000000000000000000000000000000000000000000000000000000000000000000000000000000000000000000000000000000000000000000000000000000000000000000000000000000000000000000000000000000000000000000000000000000000000000000000000000000000000000000000000000000000000000000000000000000000000000000000000000000000000000000000000000000000000000000000000000000000000000000000000000000000000000000000000000",
      "type": "0x2",
      "transactionHash": "0x4c77379c8b365fbf434032dcffa60b3073dc257f5acf7dd6f9c768ede4426129",
      "transactionIndex": "0x2a",
      "blockHash": "0xaae29cf73158251917f36db0ffcb40e8c05226a8badf5ad991003151cb0e5454",
      "blockNumber": "0x16112ad",
      "gasUsed": "0x5242",
      "effectiveGasPrice": "0x7b84f5",
      "from": "0xeb0d8736cc2c47882f112507cc8a3355d37d2413",
      "to": "0xa06a0a7c9bb956a554aeaced7995fde1b62f9fcc",
      "contractAddress": null,
      "l1BaseFeeScalar": "0x44d",
      "l1BlobBaseFee": "0x1",
      "l1BlobBaseFeeScalar": "0xa118b",
      "l1Fee": "0xc9d51de7",
      "l1GasPrice": "0x7292c9ae",
      "l1GasUsed": "0x640"
    },
    {
      "status": "0x1",
      "cumulativeGasUsed": "0x153f6e8",
      "logs": [
        {
          "address": "0xce2c6cd7ab51837e6f0f2313d45d443f79097dd5",
          "topics": [
            "0xdf0d3b0bf99a87fc195d045bc7ec61d3e2619e6a49dd3f5cb69102b8c9702034"
          ],
          "data": "0x000000000000000000000000a06a0a7c9bb956a554aeaced7995fde1b62f9fcc",
          "blockHash": "0xaae29cf73158251917f36db0ffcb40e8c05226a8badf5ad991003151cb0e5454",
          "blockNumber": "0x16112ad",
          "transactionHash": "0x5a3e6a58e15043208cef441e0b48e2c73c07d18286159aea6d68fc3997c1e4b3",
          "transactionIndex": "0x2b",
          "logIndex": "0x26c",
          "removed": false
        }
      ],
      "logsBloom": "0x00000000000000000000000000000000000000000000000000000008000000000000000000000000000000000000000000000000000000000000000000000000000000000000000000000000000000000000800000000000000000000000000000000000000000000000000000000000000000000000000200000000000000000000000000000000000000000000000000000000000000000000000000000000000000000000000000000000000000000000000000000000000000000040000000000000000000000000000000000000000000000000000000000000000000000000000040000000000000000000000000000000000000000000000000100000",
      "type": "0x2",
      "transactionHash": "0x5a3e6a58e15043208cef441e0b48e2c73c07d18286159aea6d68fc3997c1e4b3",
      "transactionIndex": "0x2b",
      "blockHash": "0xaae29cf73158251917f36db0ffcb40e8c05226a8badf5ad991003151cb0e5454",
      "blockNumber": "0x16112ad",
      "gasUsed": "0xaa6c",
      "effectiveGasPrice": "0x7b84f5",
      "from": "0xeb0d8736cc2c47882f112507cc8a3355d37d2413",
      "to": "0xce2c6cd7ab51837e6f0f2313d45d443f79097dd5",
      "contractAddress": null,
      "l1BaseFeeScalar": "0x44d",
      "l1BlobBaseFee": "0x1",
      "l1BlobBaseFeeScalar": "0xa118b",
      "l1Fee": "0xc9d51de7",
      "l1GasPrice": "0x7292c9ae",
      "l1GasUsed": "0x640"
    },
    {
      "status": "0x1",
      "cumulativeGasUsed": "0x16476fe",
      "logs": [
        {
          "address": "0xa06a0a7c9bb956a554aeaced7995fde1b62f9fcc",
          "topics": [
            "0xc258815eb0a1f2440f7f553879513276ef63bc429da850c8aae677403d0ba287"
          ],
          "data": "0x30783433646362376630303030303030303030303030303030303030303030300000000000000000000000000000000000000000000000000000000000000001000000000000000000000000000000000000000000000000000001959613c3b100000000000000000000000000000000000000000000000000000000000000a000000000000000000000000000000000000000000000000000000000000000e00000000000000000000000000000000000000000000000000000000000000008415050524f5645440000000000000000000000000000000000000000000000000000000000000000000000000000000000000000000000000000000000000038506f6c69637920274141564520436f6d706c6574652041565320506c7567696e2720617574686f72697a6564207472616e73616374696f6e0000000000000000",
          "blockHash": "0xaae29cf73158251917f36db0ffcb40e8c05226a8badf5ad991003151cb0e5454",
          "blockNumber": "0x16112ad",
          "transactionHash": "0x348858c494923a51ad42cdafd66c72b423121f9d5f73c95af02457f71c7faeec",
          "transactionIndex": "0x2c",
          "logIndex": "0x26d",
          "removed": false
        },
        {
          "address": "0x6966b0e55883d49bfb24539356a2f8a673e02039",
          "topics": [
            "0x769f711d20c679153d382254f59892613b58a97cc876b249134ac25c80f9c814",
            "0x000000000000000000000000a06a0a7c9bb956a554aeaced7995fde1b62f9fcc",
            "0x000000000000000000000000000000000000000000000000000000000008274f",
            "0x000000000000000000000000206d28abb8e1b753c438d46b183fe1d47e4e9615"
          ],
          "data": "0x0000000000000000000000000000000000000000000000000000000000000020000000000000000000000000000000000000000000000000000000000000020d0300009c9d00014a34000000000000000000000000a06a0a7c9bb956a554aeaced7995fde1b62f9fcc0008274f000000000000000000000000206d28abb8e1b753c438d46b183fe1d47e4e961500000000000000000000000000000000000000000000000000000000000000c030783433646362376630303030303030303030303030303030303030303030300000000000000000000000000000000000000000000000000000000000000001000000000000000000000000000000000000000000000000000001959613c3b100000000000000000000000000000000000000000000000000000000000001200000000000000000000000000000000000000000000000000000000000000160000000000000000000000000000000000000000000000000000000000000002e516d5a6b6b32593763394139774b675768334647525053526b665a5076466d526d6e4342517571484845537042620000000000000000000000000000000000000000000000000000000000000000000000000000000000000000000000000008415050524f5645440000000000000000000000000000000000000000000000000000000000000000000000000000000000000000000000000000000000000038506f6c69637920274141564520436f6d706c6574652041565320506c7567696e2720617574686f72697a6564207472616e73616374696f6e000000000000000000000000000000000000000000000000000000",
          "blockHash": "0xaae29cf73158251917f36db0ffcb40e8c05226a8badf5ad991003151cb0e5454",
          "blockNumber": "0x16112ad",
          "transactionHash": "0x348858c494923a51ad42cdafd66c72b423121f9d5f73c95af02457f71c7faeec",
          "transactionIndex": "0x2c",
          "logIndex": "0x26e",
          "removed": false
        },
        {
          "address": "0x6966b0e55883d49bfb24539356a2f8a673e02039",
          "topics": [
            "0x788dbc1b7152732178210e7f4d9d010ef016f9eafbe66786bd7169f56e0c353a",
            "0x2b0f19ad2aee42c19e941c5d7ae575c0cffec96250d487fab25a4d12b0b848d2"
          ],
          "data": "0x",
          "blockHash": "0xaae29cf73158251917f36db0ffcb40e8c05226a8badf5ad991003151cb0e5454",
          "blockNumber": "0x16112ad",
          "transactionHash": "0x348858c494923a51ad42cdafd66c72b423121f9d5f73c95af02457f71c7faeec",
          "transactionIndex": "0x2c",
          "logIndex": "0x26f",
          "removed": false
        },
        {
          "address": "0x28b02b97a850872c4d33c3e024fab6499ad96564",
          "topics": [
            "0x65695c3748edae85a24cc2c60b299b31f463050bc259150d2e5802ec8d11720a",
            "0x2b0f19ad2aee42c19e941c5d7ae575c0cffec96250d487fab25a4d12b0b848d2",
            "0x000000000000000000000000000000000000000000000000000000000008274f"
          ],
          "data": "0x00000000000000000000000000000000000000000000000000000000000314ee00000000000000000000000000000000000000000000000000000acd68660ce0",
          "blockHash": "0xaae29cf73158251917f36db0ffcb40e8c05226a8badf5ad991003151cb0e5454",
          "blockNumber": "0x16112ad",
          "transactionHash": "0x348858c494923a51ad42cdafd66c72b423121f9d5f73c95af02457f71c7faeec",
          "transactionIndex": "0x2c",
          "logIndex": "0x270",
          "removed": false
        },
        {
          "address": "0x86fb9f1c124fb20ff130c41a79a432f770f67afd",
          "topics": [
            "0x253a3a04cab70d47c1504809242d9350cd81627b4f1d50753e159cf8cd76ed33"
          ],
          "data": "0x2b0f19ad2aee42c19e941c5d7ae575c0cffec96250d487fab25a4d12b0b848d20000000000000000000000000000000000000000000000000000000000009ad1",
          "blockHash": "0xaae29cf73158251917f36db0ffcb40e8c05226a8badf5ad991003151cb0e5454",
          "blockNumber": "0x16112ad",
          "transactionHash": "0x348858c494923a51ad42cdafd66c72b423121f9d5f73c95af02457f71c7faeec",
          "transactionIndex": "0x2c",
          "logIndex": "0x271",
          "removed": false
        },
        {
          "address": "0xa06a0a7c9bb956a554aeaced7995fde1b62f9fcc",
          "topics": [
            "0xc694db997aa6bf290770077bf817cf5889350fa738e7ca37f9bcd63a5706c7f3"
          ],
          "data": "0x2b0f19ad2aee42c19e941c5d7ae575c0cffec96250d487fab25a4d12b0b848d2000000000000000000000000000000000000000000000000000000000000008000000000000000000000000000000000000000000000000000000000000000e00000000000000000000000000000000000000000000000000000000000000000000000000000000000000000000000000000000000000000000000000000002e516d5a6b6b32593763394139774b675768334647525053526b665a5076466d526d6e43425175714848455370426200000000000000000000000000000000000000000000000000000000000000000000000000000000000000000000000000cd7b22747855554944223a22307834336463623766303030303030303030303030303030303030303030303030303030303030303030303030303030303030303030303030303030303030303030222c226167656e744964223a312c2274696d657374616d70223a313734313937393633323536312c22737461747573223a22415050524f564544222c22726561736f6e223a22506f6c69637920274141564520436f6d706c6574652041565320506c7567696e2720617574686f72697a6564207472616e73616374696f6e227d00000000000000000000000000000000000000",
          "blockHash": "0xaae29cf73158251917f36db0ffcb40e8c05226a8badf5ad991003151cb0e5454",
          "blockNumber": "0x16112ad",
          "transactionHash": "0x348858c494923a51ad42cdafd66c72b423121f9d5f73c95af02457f71c7faeec",
          "transactionIndex": "0x2c",
          "logIndex": "0x272",
          "removed": false
        }
      ],
      "logsBloom": "0x00010000000000808000200000800000000000000000000000800000002000000000000000000000100000000000080000800000200000000000000000000800080000000000400000800001000000000000080000000000000000000000000000000000100080000000020000000000000000000000000000000800001000000000000000000002000000000008000000000080000000000000000040800000000000000000000000000200000000004600000000000000000000000000000010001200000000000000000100000000100000000000000000000000000000000000400000000000000000004000000000000402000000040000000000000400",
      "type": "0x2",
      "transactionHash": "0x348858c494923a51ad42cdafd66c72b423121f9d5f73c95af02457f71c7faeec",
      "transactionIndex": "0x2c",
      "blockHash": "0xaae29cf73158251917f36db0ffcb40e8c05226a8badf5ad991003151cb0e5454",
      "blockNumber": "0x16112ad",
      "gasUsed": "0x108016",
      "effectiveGasPrice": "0x7b84f5",
      "from": "0xeb0d8736cc2c47882f112507cc8a3355d37d2413",
      "to": "0xa06a0a7c9bb956a554aeaced7995fde1b62f9fcc",
      "contractAddress": null,
      "l1BaseFeeScalar": "0x44d",
      "l1BlobBaseFee": "0x1",
      "l1BlobBaseFeeScalar": "0xa118b",
      "l1Fee": "0x24d6142ee",
      "l1GasPrice": "0x7292c9ae",
      "l1GasUsed": "0x1240"
    }
  ],
  "libraries": [],
  "pending": [],
  "returns": {},
  "timestamp": 1742046285,
  "chain": 84532,
  "commit": "dbab284"
}