{
  "transactions": [
    {
      "hash": "0x06415c00c8f6c189cd98beca231f873000bd294426fdfb46a6d94c940f5d8a10",
      "transactionType": "CREATE",
      "contractName": "CrosschainSender",
      "contractAddress": "0xdb95a5b9393a490a4cffb8fff47488d0b76db23b",
      "function": null,
      "arguments": [
        "0x6966b0E55883d49BFB24539356a2f8A673E02039",
        "534351",
        "0xB8bF97A81f3851448B4F8963Bf8D93A06e0A7398",
        "0xcE2c6cd7ab51837E6F0f2313D45D443F79097Dd5"
      ],
      "transaction": {
        "from": "0xeb0d8736cc2c47882f112507cc8a3355d37d2413",
        "gas": "0x11318b",
        "value": "0x0",
        "input": "0x610100604052346100815761001e61001561019a565b929190916101f5565b610026610086565b610e9661020d823960805181818161037101528181610b830152610c61015260a05181818160a301528181610bb10152610c94015260c0518181816102df01528181610bd90152610cbc015260e051816104230152610e9690f35b61008c565b60405190565b5f80fd5b601f801991011690565b634e487b7160e01b5f52604160045260245ffd5b906100b890610090565b810190811060018060401b038211176100d057604052565b61009a565b906100e86100e1610086565b92836100ae565b565b5f80fd5b60018060a01b031690565b610102906100ee565b90565b61010e816100f9565b0361011557565b5f80fd5b9050519061012682610105565b565b63ffffffff1690565b61013a81610128565b0361014157565b5f80fd5b9050519061015282610131565b565b6080818303126101955761016a825f8301610119565b9261019261017b8460208501610145565b936101898160408601610119565b93606001610119565b90565b6100ea565b6101b86110a3803803806101ad816100d5565b928339810190610154565b90919293565b90565b6101d56101d06101da926100ee565b6101be565b6100ee565b90565b6101e6906101c1565b90565b6101f2906101dd565b90565b6101fe906101e9565b60805260a05260c05260e05256fe60806040526004361015610015575b366104aa57005b61001f5f3561007e565b80632858c55a14610079578063502f5bd0146100745780639341effc1461006f578063d5438eae1461006a578063d92807a2146100655763dd1a53870361000e5761047a565b610445565b6103ec565b61033a565b6102ab565b6100f0565b60e01c90565b60405190565b5f80fd5b5f80fd5b5f91031261009c57565b61008e565b7f000000000000000000000000000000000000000000000000000000000000000090565b63ffffffff1690565b6100d7906100c5565b9052565b91906100ee905f602085019401906100ce565b565b3461012057610100366004610092565b61011c61010b6100a1565b610113610084565b918291826100db565b0390f35b61008a565b5f80fd5b5f80fd5b9081608091031261013b5790565b610129565b151590565b61014e81610140565b0361015557565b5f80fd5b9050359061016682610145565b565b5f80fd5b5f80fd5b5f80fd5b909182601f830112156101ae5781359167ffffffffffffffff83116101a95760200192600183028401116101a457565b610170565b61016c565b610168565b919060206002028301116101c357565b610170565b909182601f830112156102025781359167ffffffffffffffff83116101fd5760200192602083028401116101f857565b610170565b61016c565b610168565b60c0818303126102a1575f81013567ffffffffffffffff811161029c578261023091830161012d565b9261023e8360208401610159565b92604083013567ffffffffffffffff8111610297578161025f918501610174565b92909361026f83606083016101b3565b9260a082013567ffffffffffffffff81116102925761028e92016101c8565b9091565b610125565b610125565b610125565b61008e565b5f0190565b346102d8576102bb366004610207565b505050505050506102ca610084565b806102d4816102a6565b0390f35b61008a565b7f000000000000000000000000000000000000000000000000000000000000000090565b60018060a01b031690565b61031590610301565b90565b6103219061030c565b9052565b9190610338905f60208501940190610318565b565b3461036a5761034a366004610092565b6103666103556102dd565b61035d610084565b91829182610325565b0390f35b61008a565b7f000000000000000000000000000000000000000000000000000000000000000090565b90565b6103aa6103a56103af92610301565b610393565b610301565b90565b6103bb90610396565b90565b6103c7906103b2565b90565b6103d3906103be565b9052565b91906103ea905f602085019401906103ca565b565b3461041c576103fc366004610092565b61041861040761036f565b61040f610084565b918291826103d7565b0390f35b61008a565b7f000000000000000000000000000000000000000000000000000000000000000090565b3461047557610455366004610092565b610471610460610421565b610468610084565b91829182610325565b0390f35b61008a565b610494610488366004610207565b95949094939193610acb565b61049c610084565b806104a6816102a6565b0390f35b5f80fd5b5f80fd5b5f80fd5b5f80fd5b9035906001602003813603038212156104fc570180359067ffffffffffffffff82116104f7576020019160018202360383136104f257565b6104b6565b6104b2565b6104ae565b90565b61050d81610501565b0361051457565b5f80fd5b9050359061052582610504565b565b90565b61053381610527565b0361053a57565b5f80fd5b9050359061054b8261052a565b565b5f80fd5b601f801991011690565b634e487b7160e01b5f52604160045260245ffd5b9061057990610551565b810190811067ffffffffffffffff82111761059357604052565b61055b565b906105ab6105a4610084565b928361056f565b565b67ffffffffffffffff81116105cb576105c7602091610551565b0190565b61055b565b90825f939282370152565b909291926105f06105eb826105ad565b610598565b9381855260208501908284011161060c5761060a926105d0565b565b61054d565b9080601f8301121561062f5781602061062c933591016105db565b90565b610168565b91909160a0818403126106b65761064d835f8301610518565b9261065b816020840161053e565b92610669826040850161053e565b92606081013567ffffffffffffffff81116106b1578361068a918301610611565b92608082013567ffffffffffffffff81116106ac576106a99201610611565b90565b610125565b610125565b61008e565b6106c490610501565b9052565b6106d190610527565b9052565b5190565b60209181520190565b90825f9392825e0152565b61070c61071560209361071a93610703816106d5565b938480936106d9565b958691016106e2565b610551565b0190565b9361075361076e96946107496107609561073f60a08a01965f8b01906106bb565b60208901906106c8565b60408701906106c8565b84820360608601526106ed565b9160808184039101526106ed565b90565b9035906001602003813603038212156107b3570180359067ffffffffffffffff82116107ae576020019160018202360383136107a957565b6104b6565b6104b2565b6104ae565b91906107d2816107cb816107d7956106d9565b80956105d0565b610551565b0190565b95919461081b61083295610811610806610825956108409c9a60c08d01918d5f8185039101526107b8565b9660208b01906106bb565b60408901906106c8565b60608701906106c8565b84820360808601526106ed565b9160a08184039101526106ed565b90565b60e01b90565b905051906108568261052a565b565b906020828203126108715761086e915f01610849565b90565b61008e565b5190565b60209181520190565b6108a26108ab6020936108b09361089981610876565b9384809361087a565b958691016106e2565b610551565b0190565b6108d86108e59492936108ce60608401955f8501906100ce565b60208301906106bb565b6040818403910152610883565b90565b6108f0610084565b3d5f823e3d90fd5b610901906103b2565b90565b60207f696e206d65737361676500000000000000000000000000000000000000000000917f496e73756666696369656e742066756e647320666f722063726f73732d6368615f8201520152565b61095e602a6040926106d9565b61096781610904565b0190565b6109809060208101905f818303910152610951565b90565b1561098a57565b610992610084565b62461bcd60e51b8152806109a86004820161096b565b0390fd5b905051906109b982610504565b565b906020828203126109d4576109d1915f016109ac565b90565b61008e565b5f1c90565b6109f26109ed6109f792610527565b610393565b610527565b90565b610a06610a0b916109d9565b6109de565b90565b61ffff1690565b610a1e81610a0e565b03610a2557565b5f80fd5b35610a3381610a15565b90565b9190610a5081610a4981610a559561087a565b80956105d0565b610551565b0190565b610a6d610a68610a7292610a0e565b610393565b610527565b90565b610a7e90610a59565b9052565b9695939094610ab388606095610ac195610aa6610ac99a5f608086019501906106c8565b8b830360208d01526107b8565b9188830360408a0152610a36565b940190610a75565b565b955092505050610adc915015610140565b610deb57610b6f610b7e610aff610af78460208101906104ba565b810190610634565b90939592919386838691610b428486907fc258815eb0a1f2440f7f553879513276ef63bc429da850c8aae677403d0ba28795610b39610084565b9586958661071e565b0390a1610b52885f810190610771565b959095979390919293610b63610084565b988997602089016107db565b6020820181038252038261056f565b610ba77f00000000000000000000000000000000000000000000000000000000000000006103be565b6020639c42bd18917f000000000000000000000000000000000000000000000000000000000000000090610c16610bfd7f0000000000000000000000000000000000000000000000000000000000000000610e3b565b94610c2187610c0a610084565b97889687958695610843565b8552600485016108b4565b03915afa8015610de6576020915f91610db9575b50610c5c610c42306108f8565b31610c55610c4f84610527565b91610527565b1015610983565b610c857f00000000000000000000000000000000000000000000000000000000000000006103be565b90610cf563fa31de01919291927f000000000000000000000000000000000000000000000000000000000000000093610d00610ce07f0000000000000000000000000000000000000000000000000000000000000000610e3b565b97610ce9610084565b98899788968795610843565b8552600485016108b4565b03925af1908115610db457610d8191610d20915f91610d86575b506109fa565b610d2d835f810190610771565b929092936060610d4d610d448360208101906104ba565b92909301610a29565b917fc694db997aa6bf290770077bf817cf5889350fa738e7ca37f9bcd63a5706c7f396610d78610084565b96879687610a82565b0390a1565b610da7915060203d8111610dad575b610d9f818361056f565b8101906109bb565b5f610d1a565b503d610d95565b6108e8565b610dd99150823d8111610ddf575b610dd1818361056f565b810190610858565b5f610c35565b503d610dc7565b6108e8565b50565b5f90565b610dfb90610396565b90565b610e12610e0d610e1792610301565b610393565b610527565b90565b5f1b90565b610e33610e2e610e3892610527565b610e1a565b610501565b90565b610e58610e53610e5d92610e4d610dee565b50610df2565b610dfe565b610e1f565b9056fea2646970667358221220d4db4a34892b05ad5733b027a409eb8cd4bc8044f125d206cbb1b864d9845f3864736f6c634300081c00330000000000000000000000006966b0e55883d49bfb24539356a2f8a673e02039000000000000000000000000000000000000000000000000000000000008274f000000000000000000000000b8bf97a81f3851448b4f8963bf8d93a06e0a7398000000000000000000000000ce2c6cd7ab51837e6f0f2313d45d443f79097dd5",
        "nonce": "0x42",
        "chainId": "0x14a34"
      },
      "additionalContracts": [],
      "isFixedGasLimit": false
    },
    {
      "hash": "0x93036566c2cbedec49f46d21cbd7c0e59d2d45fc4fdace88d9439bdfde09bb5c",
      "transactionType": "CALL",
      "contractName": null,
      "contractAddress": "0xdb95a5b9393a490a4cffb8fff47488d0b76db23b",
      "function": null,
      "arguments": null,
      "transaction": {
        "from": "0xeb0d8736cc2c47882f112507cc8a3355d37d2413",
        "to": "0xdb95a5b9393a490a4cffb8fff47488d0b76db23b",
        "gas": "0x784d",
        "value": "0x2386f26fc10000",
        "input": "0x",
        "nonce": "0x43",
        "chainId": "0x14a34"
      },
      "additionalContracts": [],
      "isFixedGasLimit": false
    },
    {
      "hash": "0x238843652bdd7c0667e1900033ef4a60fc51b6d15feda375a0d2024a8ce30d10",
      "transactionType": "CALL",
      "contractName": null,
      "contractAddress": "0xce2c6cd7ab51837e6f0f2313d45d443f79097dd5",
      "function": "setAvsLogic(address)",
      "arguments": [
        "0xdb95A5b9393a490A4CFFB8FFF47488D0b76Db23B"
      ],
      "transaction": {
        "from": "0xeb0d8736cc2c47882f112507cc8a3355d37d2413",
        "to": "0xce2c6cd7ab51837e6f0f2313d45d443f79097dd5",
        "gas": "0xeb64",
        "value": "0x0",
        "input": "0x008fd386000000000000000000000000db95a5b9393a490a4cffb8fff47488d0b76db23b",
        "nonce": "0x44",
        "chainId": "0x14a34"
      },
      "additionalContracts": [],
      "isFixedGasLimit": false
    },
    {
      "hash": "0x4ac7c3679f8b52566e9b000a75349cb4f4e1fb000b18ff532ecba3e61adcbe91",
      "transactionType": "CALL",
      "contractName": "CrosschainSender",
      "contractAddress": "0xdb95a5b9393a490a4cffb8fff47488d0b76db23b",
      "function": "afterTaskSubmission((string,bytes,address,uint16),bool,bytes,uint256[2],uint256[])",
      "arguments": [
        "(OmZkk2Y7c9A9wKoWh3FGRPSRkfZPvEmRnnC5DuqHHESpBb, 0x30dcb7f0000000000000000000000000000000000000000000000000000000000000000000000000000000000000000000000000000000000000000000000001000000000000000000000000000000000000000000000000000001959613c3b100000000000000000000000000000000000000000000000000000000000000a000000000000000000000000000000000000000000000000000000000000000e00000000000000000000000000000000000000000000000000000000000000008415050524f5645440000000000000000000000000000000000000000000000000000000000000000000000000000000000000000000000000000000000000038506f6c69637920274141564520436f6d706c6574652041565320506c7567696e2720617574686f72697a6564207472616e73616374696f6e0000000000000000, 0x0000000000000000000000000000000000000000, 0)",
        "true",
        "0x3078",
        "[1, 2]",
        "[]"
      ],
      "transaction": {
        "from": "0xeb0d8736cc2c47882f112507cc8a3355d37d2413",
        "to": "0xdb95a5b9393a490a4cffb8fff47488d0b76db23b",
        "gas": "0x4ba00",
        "value": "0x0",
        "input": "0xdd1a538700000000000000000000000000000000000000000000000000000000000000c000000000000000000000000000000000000000000000000000000000000000010000000000000000000000000000000000000000000000000000000000000300000000000000000000000000000000000000000000000000000000000000000100000000000000000000000000000000000000000000000000000000000000020000000000000000000000000000000000000000000000000000000000000340000000000000000000000000000000000000000000000000000000000000008000000000000000000000000000000000000000000000000000000000000000e000000000000000000000000000000000000000000000000000000000000000000000000000000000000000000000000000000000000000000000000000000000000000000000000000000000000000000000000000000000000000000000002e4f6d5a6b6b32593763394139774b6f5768334647525053526b665a5076456d526e6e433544757148484553704262000000000000000000000000000000000000000000000000000000000000000000000000000000000000000000000000014030dcb7f0000000000000000000000000000000000000000000000000000000000000000000000000000000000000000000000000000000000000000000000001000000000000000000000000000000000000000000000000000001959613c3b100000000000000000000000000000000000000000000000000000000000000a000000000000000000000000000000000000000000000000000000000000000e00000000000000000000000000000000000000000000000000000000000000008415050524f5645440000000000000000000000000000000000000000000000000000000000000000000000000000000000000000000000000000000000000038506f6c69637920274141564520436f6d706c6574652041565320506c7567696e2720617574686f72697a6564207472616e73616374696f6e0000000000000000000000000000000000000000000000000000000000000000000000000000000230780000000000000000000000000000000000000000000000000000000000000000000000000000000000000000000000000000000000000000000000000000",
        "nonce": "0x45",
        "chainId": "0x14a34"
      },
      "additionalContracts": [],
      "isFixedGasLimit": false
    }
  ],
  "receipts": [
    {
      "status": "0x1",
      "cumulativeGasUsed": "0x1e7e09",
      "logs": [],
      "logsBloom": "0x00000000000000000000000000000000000000000000000000000000000000000000000000000000000000000000000000000000000000000000000000000000000000000000000000000000000000000000000000000000000000000000000000000000000000000000000000000000000000000000000000000000000000000000000000000000000000000000000000000000000000000000000000000000000000000000000000000000000000000000000000000000000000000000000000000000000000000000000000000000000000000000000000000000000000000000000000000000000000000000000000000000000000000000000000000000",
      "type": "0x2",
      "transactionHash": "0x06415c00c8f6c189cd98beca231f873000bd294426fdfb46a6d94c940f5d8a10",
      "transactionIndex": "0x8",
      "blockHash": "0x27b657e844aa4f61a9337a8e8efdd7039586a893fa534415d7f8a1622fda4958",
      "blockNumber": "0x16117f8",
      "gasUsed": "0xd39ce",
      "effectiveGasPrice": "0x875017",
      "from": "0xeb0d8736cc2c47882f112507cc8a3355d37d2413",
      "to": null,
      "contractAddress": "0xdb95a5b9393a490a4cffb8fff47488d0b76db23b",
      "l1BaseFeeScalar": "0x44d",
      "l1BlobBaseFee": "0x1",
      "l1BlobBaseFeeScalar": "0xa118b",
      "l1Fee": "0x119a1b61b2",
      "l1GasPrice": "0x609d4c6e",
      "l1GasUsed": "0xa579"
    },
    {
      "status": "0x1",
      "cumulativeGasUsed": "0x1ed04b",
      "logs": [],
      "logsBloom": "0x00000000000000000000000000000000000000000000000000000000000000000000000000000000000000000000000000000000000000000000000000000000000000000000000000000000000000000000000000000000000000000000000000000000000000000000000000000000000000000000000000000000000000000000000000000000000000000000000000000000000000000000000000000000000000000000000000000000000000000000000000000000000000000000000000000000000000000000000000000000000000000000000000000000000000000000000000000000000000000000000000000000000000000000000000000000",
      "type": "0x2",
      "transactionHash": "0x93036566c2cbedec49f46d21cbd7c0e59d2d45fc4fdace88d9439bdfde09bb5c",
      "transactionIndex": "0x9",
      "blockHash": "0x27b657e844aa4f61a9337a8e8efdd7039586a893fa534415d7f8a1622fda4958",
      "blockNumber": "0x16117f8",
      "gasUsed": "0x5242",
      "effectiveGasPrice": "0x875017",
      "from": "0xeb0d8736cc2c47882f112507cc8a3355d37d2413",
      "to": "0xdb95a5b9393a490a4cffb8fff47488d0b76db23b",
      "contractAddress": null,
      "l1BaseFeeScalar": "0x44d",
      "l1BlobBaseFee": "0x1",
      "l1BlobBaseFeeScalar": "0xa118b",
      "l1Fee": "0xaa322e03",
      "l1GasPrice": "0x609d4c6e",
      "l1GasUsed": "0x640"
    },
    {
      "status": "0x1",
      "cumulativeGasUsed": "0x1f7ab7",
      "logs": [
        {
          "address": "0xce2c6cd7ab51837e6f0f2313d45d443f79097dd5",
          "topics": [
            "0xdf0d3b0bf99a87fc195d045bc7ec61d3e2619e6a49dd3f5cb69102b8c9702034"
          ],
          "data": "0x000000000000000000000000db95a5b9393a490a4cffb8fff47488d0b76db23b",
          "blockHash": "0x27b657e844aa4f61a9337a8e8efdd7039586a893fa534415d7f8a1622fda4958",
          "blockNumber": "0x16117f8",
          "transactionHash": "0x238843652bdd7c0667e1900033ef4a60fc51b6d15feda375a0d2024a8ce30d10",
          "transactionIndex": "0xa",
          "logIndex": "0x1d",
          "removed": false
        }
      ],
      "logsBloom": "0x00000000000000000000000000000000000000000000000000000008000000000000000000000000000000000000000000000000000000000000000000000000000000000000000000000000000000000000800000000000000000000000000000000000000000000000000000000000000000000000000200000000000000000000000000000000000000000000000000000000000000000000000000000000000000000000000000000000000000000000000000000000000000000040000000000000000000000000000000000000000000000000000000000000000000000000000040000000000000000000000000000000000000000000000000100000",
      "type": "0x2",
      "transactionHash": "0x238843652bdd7c0667e1900033ef4a60fc51b6d15feda375a0d2024a8ce30d10",
      "transactionIndex": "0xa",
      "blockHash": "0x27b657e844aa4f61a9337a8e8efdd7039586a893fa534415d7f8a1622fda4958",
      "blockNumber": "0x16117f8",
      "gasUsed": "0xaa6c",
      "effectiveGasPrice": "0x875017",
      "from": "0xeb0d8736cc2c47882f112507cc8a3355d37d2413",
      "to": "0xce2c6cd7ab51837e6f0f2313d45d443f79097dd5",
      "contractAddress": null,
      "l1BaseFeeScalar": "0x44d",
      "l1BlobBaseFee": "0x1",
      "l1BlobBaseFeeScalar": "0xa118b",
      "l1Fee": "0xaa322e03",
      "l1GasPrice": "0x609d4c6e",
      "l1GasUsed": "0x640"
    },
    {
      "status": "0x1",
      "cumulativeGasUsed": "0x22e6bc",
      "logs": [
        {
          "address": "0xdb95a5b9393a490a4cffb8fff47488d0b76db23b",
          "topics": [
            "0xc258815eb0a1f2440f7f553879513276ef63bc429da850c8aae677403d0ba287"
          ],
          "data": "0x30dcb7f0000000000000000000000000000000000000000000000000000000000000000000000000000000000000000000000000000000000000000000000001000000000000000000000000000000000000000000000000000001959613c3b100000000000000000000000000000000000000000000000000000000000000a000000000000000000000000000000000000000000000000000000000000000e00000000000000000000000000000000000000000000000000000000000000008415050524f5645440000000000000000000000000000000000000000000000000000000000000000000000000000000000000000000000000000000000000038506f6c69637920274141564520436f6d706c6574652041565320506c7567696e2720617574686f72697a6564207472616e73616374696f6e0000000000000000",
          "blockHash": "0x27b657e844aa4f61a9337a8e8efdd7039586a893fa534415d7f8a1622fda4958",
          "blockNumber": "0x16117f8",
          "transactionHash": "0x4ac7c3679f8b52566e9b000a75349cb4f4e1fb000b18ff532ecba3e61adcbe91",
          "transactionIndex": "0xb",
          "logIndex": "0x1e",
          "removed": false
        },
        {
          "address": "0x6966b0e55883d49bfb24539356a2f8a673e02039",
          "topics": [
            "0x769f711d20c679153d382254f59892613b58a97cc876b249134ac25c80f9c814",
            "0x000000000000000000000000db95a5b9393a490a4cffb8fff47488d0b76db23b",
            "0x000000000000000000000000000000000000000000000000000000000008274f",
            "0x000000000000000000000000b8bf97a81f3851448b4f8963bf8d93a06e0a7398"
          ],
          "data": "0x0000000000000000000000000000000000000000000000000000000000000020000000000000000000000000000000000000000000000000000000000000020d0300009c9f00014a34000000000000000000000000db95a5b9393a490a4cffb8fff47488d0b76db23b0008274f000000000000000000000000b8bf97a81f3851448b4f8963bf8d93a06e0a739800000000000000000000000000000000000000000000000000000000000000c030dcb7f0000000000000000000000000000000000000000000000000000000000000000000000000000000000000000000000000000000000000000000000001000000000000000000000000000000000000000000000000000001959613c3b100000000000000000000000000000000000000000000000000000000000001200000000000000000000000000000000000000000000000000000000000000160000000000000000000000000000000000000000000000000000000000000002e4f6d5a6b6b32593763394139774b6f5768334647525053526b665a5076456d526e6e4335447571484845537042620000000000000000000000000000000000000000000000000000000000000000000000000000000000000000000000000008415050524f5645440000000000000000000000000000000000000000000000000000000000000000000000000000000000000000000000000000000000000038506f6c69637920274141564520436f6d706c6574652041565320506c7567696e2720617574686f72697a6564207472616e73616374696f6e000000000000000000000000000000000000000000000000000000",
          "blockHash": "0x27b657e844aa4f61a9337a8e8efdd7039586a893fa534415d7f8a1622fda4958",
          "blockNumber": "0x16117f8",
          "transactionHash": "0x4ac7c3679f8b52566e9b000a75349cb4f4e1fb000b18ff532ecba3e61adcbe91",
          "transactionIndex": "0xb",
          "logIndex": "0x1f",
          "removed": false
        },
        {
          "address": "0x6966b0e55883d49bfb24539356a2f8a673e02039",
          "topics": [
            "0x788dbc1b7152732178210e7f4d9d010ef016f9eafbe66786bd7169f56e0c353a",
            "0x5bc2d133317c3cf76f7f8e2baf55b3e155cf2672e51f3bae1a545bd8dffb8f7e"
          ],
          "data": "0x",
          "blockHash": "0x27b657e844aa4f61a9337a8e8efdd7039586a893fa534415d7f8a1622fda4958",
          "blockNumber": "0x16117f8",
          "transactionHash": "0x4ac7c3679f8b52566e9b000a75349cb4f4e1fb000b18ff532ecba3e61adcbe91",
          "transactionIndex": "0xb",
          "logIndex": "0x20",
          "removed": false
        },
        {
          "address": "0x28b02b97a850872c4d33c3e024fab6499ad96564",
          "topics": [
            "0x65695c3748edae85a24cc2c60b299b31f463050bc259150d2e5802ec8d11720a",
            "0x5bc2d133317c3cf76f7f8e2baf55b3e155cf2672e51f3bae1a545bd8dffb8f7e",
            "0x000000000000000000000000000000000000000000000000000000000008274f"
          ],
          "data": "0x00000000000000000000000000000000000000000000000000000000000314ee00000000000000000000000000000000000000000000000000000acd68660ce0",
          "blockHash": "0x27b657e844aa4f61a9337a8e8efdd7039586a893fa534415d7f8a1622fda4958",
          "blockNumber": "0x16117f8",
          "transactionHash": "0x4ac7c3679f8b52566e9b000a75349cb4f4e1fb000b18ff532ecba3e61adcbe91",
          "transactionIndex": "0xb",
          "logIndex": "0x21",
          "removed": false
        },
        {
          "address": "0x86fb9f1c124fb20ff130c41a79a432f770f67afd",
          "topics": [
            "0x253a3a04cab70d47c1504809242d9350cd81627b4f1d50753e159cf8cd76ed33"
          ],
          "data": "0x5bc2d133317c3cf76f7f8e2baf55b3e155cf2672e51f3bae1a545bd8dffb8f7e0000000000000000000000000000000000000000000000000000000000009ad3",
          "blockHash": "0x27b657e844aa4f61a9337a8e8efdd7039586a893fa534415d7f8a1622fda4958",
          "blockNumber": "0x16117f8",
          "transactionHash": "0x4ac7c3679f8b52566e9b000a75349cb4f4e1fb000b18ff532ecba3e61adcbe91",
          "transactionIndex": "0xb",
          "logIndex": "0x22",
          "removed": false
        },
        {
          "address": "0xdb95a5b9393a490a4cffb8fff47488d0b76db23b",
          "topics": [
            "0xc694db997aa6bf290770077bf817cf5889350fa738e7ca37f9bcd63a5706c7f3"
          ],
          "data": "0x5bc2d133317c3cf76f7f8e2baf55b3e155cf2672e51f3bae1a545bd8dffb8f7e000000000000000000000000000000000000000000000000000000000000008000000000000000000000000000000000000000000000000000000000000000e00000000000000000000000000000000000000000000000000000000000000000000000000000000000000000000000000000000000000000000000000000002e4f6d5a6b6b32593763394139774b6f5768334647525053526b665a5076456d526e6e433544757148484553704262000000000000000000000000000000000000000000000000000000000000000000000000000000000000000000000000014030dcb7f0000000000000000000000000000000000000000000000000000000000000000000000000000000000000000000000000000000000000000000000001000000000000000000000000000000000000000000000000000001959613c3b100000000000000000000000000000000000000000000000000000000000000a000000000000000000000000000000000000000000000000000000000000000e00000000000000000000000000000000000000000000000000000000000000008415050524f5645440000000000000000000000000000000000000000000000000000000000000000000000000000000000000000000000000000000000000038506f6c69637920274141564520436f6d706c6574652041565320506c7567696e2720617574686f72697a6564207472616e73616374696f6e0000000000000000",
          "blockHash": "0x27b657e844aa4f61a9337a8e8efdd7039586a893fa534415d7f8a1622fda4958",
          "blockNumber": "0x16117f8",
          "transactionHash": "0x4ac7c3679f8b52566e9b000a75349cb4f4e1fb000b18ff532ecba3e61adcbe91",
          "transactionIndex": "0xb",
          "logIndex": "0x23",
          "removed": false
        }
      ],
      "logsBloom": "0x04010000000000808000200000800000000000000000000000a00000002000000000000000000000000000000000080000800000020000000000000000000800000000040000400000800000000000000000080000000000020000000000000000000000100000000000020000000000000000000400000000000800000000000000000000000002000000000008000000000080000000000000000000800000000000200000000000000200000000004200000000100000000000000000000000001040000000000000000100000000100000000000008100000000000000000000400000000000000000000000000000000402000000000000000000000400",
      "type": "0x2",
      "transactionHash": "0x4ac7c3679f8b52566e9b000a75349cb4f4e1fb000b18ff532ecba3e61adcbe91",
      "transactionIndex": "0xb",
      "blockHash": "0x27b657e844aa4f61a9337a8e8efdd7039586a893fa534415d7f8a1622fda4958",
      "blockNumber": "0x16117f8",
      "gasUsed": "0x36c05",
      "effectiveGasPrice": "0x875017",
      "from": "0xeb0d8736cc2c47882f112507cc8a3355d37d2413",
      "to": "0xdb95a5b9393a490a4cffb8fff47488d0b76db23b",
      "contractAddress": null,
      "l1BaseFeeScalar": "0x44d",
      "l1BlobBaseFee": "0x1",
      "l1BlobBaseFeeScalar": "0xa118b",
      "l1Fee": "0x1bae58bc0",
      "l1GasPrice": "0x609d4c6e",
      "l1GasUsed": "0x1043"
    }
  ],
  "libraries": [],
  "pending": [],
  "returns": {},
  "timestamp": 1742048996,
  "chain": 84532,
  "commit": "dbab284"
}