{
  "transactions": [
    {
      "hash": "0x99dd59c7cc5ed926b6e9bb7fa61df069d88498588bbbf1ac98f81fb6daa85533",
      "transactionType": "CALL",
      "contractName": null,
      "contractAddress": "0xce2c6cd7ab51837e6f0f2313d45d443f79097dd5",
      "function": "transferAvsGovernanceMultisig(address)",
      "arguments": [
        "0xeb0d8736Cc2c47882f112507cc8A3355d37D2413"
      ],
      "transaction": {
        "from": "0x537907efbc060a1b2dfd9f05fda59dcbc1ca49b4",
        "to": "0xce2c6cd7ab51837e6f0f2313d45d443f79097dd5",
        "gas": "0x16062",
        "value": "0x0",
        "input": "0x513c52ba000000000000000000000000eb0d8736cc2c47882f112507cc8a3355d37d2413",
        "nonce": "0x8",
        "chainId": "0x14a34"
      },
      "additionalContracts": [],
      "isFixedGasLimit": false
    },
    {
      "hash": "0x67424aefc0ebbe56bc6db325713f10e53ec15296567a9472d0606ceeb6a541ed",
      "transactionType": "CREATE",
      "contractName": "CrosschainSender",
      "contractAddress": "0x4ae0cbc200e001b88fc8fc2a5e549a0d1507bb88",
      "function": null,
      "arguments": [
        "0x6966b0E55883d49BFB24539356a2f8A673E02039",
        "534351",
        "0xB0d5E75D7592a15BA8fAD47698db8F06e928ECCb",
        "0xcE2c6cd7ab51837E6F0f2313D45D443F79097Dd5"
      ],
      "transaction": {
        "from": "0xeb0d8736cc2c47882f112507cc8a3355d37d2413",
        "gas": "0xf0079",
        "value": "0x0",
        "input": "0x610100604052346100815761001e61001561019a565b929190916101f5565b610026610086565b610c9761020d8239608051818181610371015281816109a30152610a81015260a05181818160a3015281816109d10152610ab4015260c0518181816102df015281816109f90152610adc015260e051816104230152610c9790f35b61008c565b60405190565b5f80fd5b601f801991011690565b634e487b7160e01b5f52604160045260245ffd5b906100b890610090565b810190811060018060401b038211176100d057604052565b61009a565b906100e86100e1610086565b92836100ae565b565b5f80fd5b60018060a01b031690565b610102906100ee565b90565b61010e816100f9565b0361011557565b5f80fd5b9050519061012682610105565b565b63ffffffff1690565b61013a81610128565b0361014157565b5f80fd5b9050519061015282610131565b565b6080818303126101955761016a825f8301610119565b9261019261017b8460208501610145565b936101898160408601610119565b93606001610119565b90565b6100ea565b6101b8610ea4803803806101ad816100d5565b928339810190610154565b90919293565b90565b6101d56101d06101da926100ee565b6101be565b6100ee565b90565b6101e6906101c1565b90565b6101f2906101dd565b90565b6101fe906101e9565b60805260a05260c05260e05256fe60806040526004361015610015575b366104aa57005b61001f5f3561007e565b80632858c55a14610079578063502f5bd0146100745780639341effc1461006f578063d5438eae1461006a578063d92807a2146100655763dd1a53870361000e5761047a565b610445565b6103ec565b61033a565b6102ab565b6100f0565b60e01c90565b60405190565b5f80fd5b5f80fd5b5f91031261009c57565b61008e565b7f000000000000000000000000000000000000000000000000000000000000000090565b63ffffffff1690565b6100d7906100c5565b9052565b91906100ee905f602085019401906100ce565b565b3461012057610100366004610092565b61011c61010b6100a1565b610113610084565b918291826100db565b0390f35b61008a565b5f80fd5b5f80fd5b9081608091031261013b5790565b610129565b151590565b61014e81610140565b0361015557565b5f80fd5b9050359061016682610145565b565b5f80fd5b5f80fd5b5f80fd5b909182601f830112156101ae5781359167ffffffffffffffff83116101a95760200192600183028401116101a457565b610170565b61016c565b610168565b919060206002028301116101c357565b610170565b909182601f830112156102025781359167ffffffffffffffff83116101fd5760200192602083028401116101f857565b610170565b61016c565b610168565b60c0818303126102a1575f81013567ffffffffffffffff811161029c578261023091830161012d565b9261023e8360208401610159565b92604083013567ffffffffffffffff8111610297578161025f918501610174565b92909361026f83606083016101b3565b9260a082013567ffffffffffffffff81116102925761028e92016101c8565b9091565b610125565b610125565b610125565b61008e565b5f0190565b346102d8576102bb366004610207565b505050505050506102ca610084565b806102d4816102a6565b0390f35b61008a565b7f000000000000000000000000000000000000000000000000000000000000000090565b60018060a01b031690565b61031590610301565b90565b6103219061030c565b9052565b9190610338905f60208501940190610318565b565b3461036a5761034a366004610092565b6103666103556102dd565b61035d610084565b91829182610325565b0390f35b61008a565b7f000000000000000000000000000000000000000000000000000000000000000090565b90565b6103aa6103a56103af92610301565b610393565b610301565b90565b6103bb90610396565b90565b6103c7906103b2565b90565b6103d3906103be565b9052565b91906103ea905f602085019401906103ca565b565b3461041c576103fc366004610092565b61041861040761036f565b61040f610084565b918291826103d7565b0390f35b61008a565b7f000000000000000000000000000000000000000000000000000000000000000090565b3461047557610455366004610092565b610471610460610421565b610468610084565b91829182610325565b0390f35b61008a565b610494610488366004610207565b95949094939193610929565b61049c610084565b806104a6816102a6565b0390f35b5f80fd5b5f80fd5b5f80fd5b5f80fd5b9035906001602003813603038212156104fc570180359067ffffffffffffffff82116104f7576020019160018202360383136104f257565b6104b6565b6104b2565b6104ae565b5f80fd5b601f801991011690565b634e487b7160e01b5f52604160045260245ffd5b9061052d90610505565b810190811067ffffffffffffffff82111761054757604052565b61050f565b9061055f610558610084565b9283610523565b565b67ffffffffffffffff811161057f5761057b602091610505565b0190565b61050f565b90825f939282370152565b909291926105a461059f82610561565b61054c565b938185526020850190828401116105c0576105be92610584565b565b610501565b6105d091369161058f565b90565b903590600160200381360303821215610615570180359067ffffffffffffffff82116106105760200191600182023603831361060b57565b6104b6565b6104b2565b6104ae565b61ffff1690565b61062a8161061a565b0361063157565b5f80fd5b3561063f81610621565b90565b5190565b60209181520190565b90825f9392825e0152565b6106796106826020936106879361067081610642565b93848093610646565b9586910161064f565b610505565b0190565b60209181520190565b91906106ae816106a7816106b39561068b565b8095610584565b610505565b0190565b6106c09061061a565b9052565b9493916106f4906106fc946106e660409460608a01908a82035f8c015261065a565b9188830360208a0152610694565b9401906106b7565b565b60e01b90565b90565b61071081610704565b0361071757565b5f80fd5b9050519061072882610707565b565b9060208282031261074357610740915f0161071b565b90565b61008e565b90565b61075490610748565b9052565b5190565b61077b6107846020936107899361077281610758565b9384809361068b565b9586910161064f565b610505565b0190565b6107b16107be9492936107a760608401955f8501906100ce565b602083019061074b565b604081840391015261075c565b90565b6107c9610084565b3d5f823e3d90fd5b6107da906103b2565b90565b60207f696e206d65737361676500000000000000000000000000000000000000000000917f496e73756666696369656e742066756e647320666f722063726f73732d6368615f8201520152565b610837602a604092610646565b610840816107dd565b0190565b6108599060208101905f81830391015261082a565b90565b1561086357565b61086b610084565b62461bcd60e51b81528061088160048201610844565b0390fd5b61088e81610748565b0361089557565b5f80fd5b905051906108a682610885565b565b906020828203126108c1576108be915f01610899565b90565b61008e565b6108da6108d56108df9261061a565b610393565b610704565b90565b6108eb906108c6565b9052565b94939161091f906109279461091160409460608a01908a82035f8c015261065a565b9188830360208a0152610694565b9401906108e2565b565b95509250505061093a915015610140565b610bec5761095461094e825f8101906104ba565b906105c5565b9061098e61099d8361096a8460208101906105d3565b61097960608796939601610635565b90610982610084565b958694602086016106c4565b60208201810382520382610523565b916109c77f00000000000000000000000000000000000000000000000000000000000000006103be565b6020639c42bd18917f000000000000000000000000000000000000000000000000000000000000000090610a36610a1d7f0000000000000000000000000000000000000000000000000000000000000000610c3c565b94610a4189610a2a610084565b978896879586956106fe565b85526004850161078d565b03915afa8015610be7576020915f91610bba575b50610a7c610a62306107d1565b31610a75610a6f84610704565b91610704565b101561085c565b610aa57f00000000000000000000000000000000000000000000000000000000000000006103be565b90610b1563fa31de01919291927f000000000000000000000000000000000000000000000000000000000000000093610b20610b007f0000000000000000000000000000000000000000000000000000000000000000610c3c565b99610b09610084565b9a8b97889687956106fe565b85526004850161078d565b03925af1928315610bb557606093610b89575b50610b84610b51610b488460208101906105d3565b95909401610635565b7f4988f8beb47890538d8c8f64abfe301628c1dbb649d1d4d7665964e178d5adac94610b7b610084565b948594856108ef565b0390a1565b610ba99060203d8111610bae575b610ba18183610523565b8101906108a8565b610b33565b503d610b97565b6107c1565b610bda9150823d8111610be0575b610bd28183610523565b81019061072a565b5f610a55565b503d610bc8565b6107c1565b50565b5f90565b610bfc90610396565b90565b610c13610c0e610c1892610301565b610393565b610704565b90565b5f1b90565b610c34610c2f610c3992610704565b610c1b565b610748565b90565b610c59610c54610c5e92610c4e610bef565b50610bf3565b610bff565b610c20565b9056fea2646970667358221220b5b1fdd43bef3c9a5f89d668745fe8240d9084dac5d758158e65f4f49adbe7d064736f6c634300081c00330000000000000000000000006966b0e55883d49bfb24539356a2f8a673e02039000000000000000000000000000000000000000000000000000000000008274f000000000000000000000000b0d5e75d7592a15ba8fad47698db8f06e928eccb000000000000000000000000ce2c6cd7ab51837e6f0f2313d45d443f79097dd5",
        "nonce": "0xc",
        "chainId": "0x14a34"
      },
      "additionalContracts": [],
      "isFixedGasLimit": false
    },
    {
      "hash": "0x2061359db20488defc7504056e7357db56cd6cf64b96deb8b103bc176e662aeb",
      "transactionType": "CALL",
      "contractName": null,
      "contractAddress": "0x4ae0cbc200e001b88fc8fc2a5e549a0d1507bb88",
      "function": null,
      "arguments": null,
      "transaction": {
        "from": "0xeb0d8736cc2c47882f112507cc8a3355d37d2413",
        "to": "0x4ae0cbc200e001b88fc8fc2a5e549a0d1507bb88",
        "gas": "0x784d",
        "value": "0x2386f26fc10000",
        "input": "0x",
        "nonce": "0xd",
        "chainId": "0x14a34"
      },
      "additionalContracts": [],
      "isFixedGasLimit": false
    },
    {
      "hash": "0x550c6de8f3d99572523fc06332f86397f28ce89839feb8895ad8490889c9531a",
      "transactionType": "CALL",
      "contractName": null,
      "contractAddress": "0xce2c6cd7ab51837e6f0f2313d45d443f79097dd5",
      "function": "setAvsLogic(address)",
      "arguments": [
        "0x4ae0Cbc200e001b88fC8Fc2A5E549A0d1507BB88"
      ],
      "transaction": {
        "from": "0xeb0d8736cc2c47882f112507cc8a3355d37d2413",
        "to": "0xce2c6cd7ab51837e6f0f2313d45d443f79097dd5",
        "gas": "0x14797",
        "value": "0x0",
        "input": "0x008fd3860000000000000000000000004ae0cbc200e001b88fc8fc2a5e549a0d1507bb88",
        "nonce": "0xe",
        "chainId": "0x14a34"
      },
      "additionalContracts": [],
      "isFixedGasLimit": false
    },
    {
      "hash": "0x37666f06f6786e60d7b95d6e98913bbeb8569155b8465a0cb314f81dd0e419e1",
      "transactionType": "CALL",
      "contractName": "CrosschainSender",
      "contractAddress": "0x4ae0cbc200e001b88fc8fc2a5e549a0d1507bb88",
      "function": "afterTaskSubmission((string,bytes,address,uint16),bool,bytes,uint256[2],uint256[])",
      "arguments": [
        "(test, 0x746573742064617461, 0x0000000000000000000000000000000000000000, 0)",
        "true",
        "0x3078",
        "[1, 2]",
        "[]"
      ],
      "transaction": {
        "from": "0xeb0d8736cc2c47882f112507cc8a3355d37d2413",
        "to": "0x4ae0cbc200e001b88fc8fc2a5e549a0d1507bb88",
        "gas": "0x49117",
        "value": "0x0",
        "input": "0xdd1a538700000000000000000000000000000000000000000000000000000000000000c0000000000000000000000000000000000000000000000000000000000000000100000000000000000000000000000000000000000000000000000000000001c0000000000000000000000000000000000000000000000000000000000000000100000000000000000000000000000000000000000000000000000000000000020000000000000000000000000000000000000000000000000000000000000200000000000000000000000000000000000000000000000000000000000000008000000000000000000000000000000000000000000000000000000000000000c0000000000000000000000000000000000000000000000000000000000000000000000000000000000000000000000000000000000000000000000000000000000000000000000000000000000000000000000000000000000000000000000004746573740000000000000000000000000000000000000000000000000000000000000000000000000000000000000000000000000000000000000000000000097465737420646174610000000000000000000000000000000000000000000000000000000000000000000000000000000000000000000000000000000000000230780000000000000000000000000000000000000000000000000000000000000000000000000000000000000000000000000000000000000000000000000000",
        "nonce": "0xf",
        "chainId": "0x14a34"
      },
      "additionalContracts": [],
      "isFixedGasLimit": false
    }
  ],
  "receipts": [
    {
      "status": "0x1",
      "cumulativeGasUsed": "0x48958",
      "logs": [
        {
          "address": "0xce2c6cd7ab51837e6f0f2313d45d443f79097dd5",
          "topics": [
            "0xf6391f5c32d9c69d2a47ea670b442974b53935d1edc7fd64eb21e047a839171b",
            "0xf168802600000000000000000000000000000000000000000000000000000000",
            "0x000000000000000000000000537907efbc060a1b2dfd9f05fda59dcbc1ca49b4",
            "0x000000000000000000000000537907efbc060a1b2dfd9f05fda59dcbc1ca49b4"
          ],
          "data": "0x",
          "blockHash": "0x1d51862460259b7739b6dbb3380f51c2cf8be1f425f3bdd74b7ed10a63babc7b",
          "blockNumber": "0x15fe5fe",
          "transactionHash": "0x99dd59c7cc5ed926b6e9bb7fa61df069d88498588bbbf1ac98f81fb6daa85533",
          "transactionIndex": "0x3",
          "logIndex": "0x3",
          "removed": false
        },
        {
          "address": "0xce2c6cd7ab51837e6f0f2313d45d443f79097dd5",
          "topics": [
            "0x2f8788117e7eff1d82e926ec794901d17c78024a50270940304540a733656f0d",
            "0xf168802600000000000000000000000000000000000000000000000000000000",
            "0x000000000000000000000000eb0d8736cc2c47882f112507cc8a3355d37d2413",
            "0x000000000000000000000000537907efbc060a1b2dfd9f05fda59dcbc1ca49b4"
          ],
          "data": "0x",
          "blockHash": "0x1d51862460259b7739b6dbb3380f51c2cf8be1f425f3bdd74b7ed10a63babc7b",
          "blockNumber": "0x15fe5fe",
          "transactionHash": "0x99dd59c7cc5ed926b6e9bb7fa61df069d88498588bbbf1ac98f81fb6daa85533",
          "transactionIndex": "0x3",
          "logIndex": "0x4",
          "removed": false
        },
        {
          "address": "0xce2c6cd7ab51837e6f0f2313d45d443f79097dd5",
          "topics": [
            "0x024e98b7d808a3ddb028252dc95dfdcb165a0ca59fcff8984b4fecf9a7222649"
          ],
          "data": "0x000000000000000000000000eb0d8736cc2c47882f112507cc8a3355d37d2413",
          "blockHash": "0x1d51862460259b7739b6dbb3380f51c2cf8be1f425f3bdd74b7ed10a63babc7b",
          "blockNumber": "0x15fe5fe",
          "transactionHash": "0x99dd59c7cc5ed926b6e9bb7fa61df069d88498588bbbf1ac98f81fb6daa85533",
          "transactionIndex": "0x3",
          "logIndex": "0x5",
          "removed": false
        }
      ],
      "logsBloom": "0x00000004000000000000000000000000000000040000000000000008000000000000000000000000000000040000000000300000000000008000000000000000000000800000000000000000000000000000000000000000000000000000000040000000000000200000000000000000000000000000000200000000000000000000000040000000000000000000000000000000000000000000000000004000000000000000000000000000000000000000000000080000001000000040080000000000000000000000400080000000000000000000000100000000000000000000000000080000000000000000000000000000000000000000000000000000",
      "type": "0x2",
      "transactionHash": "0x99dd59c7cc5ed926b6e9bb7fa61df069d88498588bbbf1ac98f81fb6daa85533",
      "transactionIndex": "0x3",
      "blockHash": "0x1d51862460259b7739b6dbb3380f51c2cf8be1f425f3bdd74b7ed10a63babc7b",
      "blockNumber": "0x15fe5fe",
      "gasUsed": "0xf0f3",
      "effectiveGasPrice": "0xed673",
      "from": "0x537907efbc060a1b2dfd9f05fda59dcbc1ca49b4",
      "to": "0xce2c6cd7ab51837e6f0f2313d45d443f79097dd5",
      "contractAddress": null,
      "l1BaseFeeScalar": "0x44d",
      "l1BlobBaseFee": "0x1",
      "l1BlobBaseFeeScalar": "0xa118b",
      "l1Fee": "0x3a5c47307",
      "l1GasPrice": "0x21211591a",
      "l1GasUsed": "0x640"
    },
    {
      "status": "0x1",
      "cumulativeGasUsed": "0xa058b6",
      "logs": [],
      "logsBloom": "0x00000000000000000000000000000000000000000000000000000000000000000000000000000000000000000000000000000000000000000000000000000000000000000000000000000000000000000000000000000000000000000000000000000000000000000000000000000000000000000000000000000000000000000000000000000000000000000000000000000000000000000000000000000000000000000000000000000000000000000000000000000000000000000000000000000000000000000000000000000000000000000000000000000000000000000000000000000000000000000000000000000000000000000000000000000000",
      "type": "0x2",
      "transactionHash": "0x67424aefc0ebbe56bc6db325713f10e53ec15296567a9472d0606ceeb6a541ed",
      "transactionIndex": "0x22",
      "blockHash": "0xfbcc8674a83e208156d5eff2adf54a3270d0df2c890b8309927eb5eba83e179a",
      "blockNumber": "0x15fe600",
      "gasUsed": "0xb8a36",
      "effectiveGasPrice": "0xed675",
      "from": "0xeb0d8736cc2c47882f112507cc8a3355d37d2413",
      "to": null,
      "contractAddress": "0x4ae0cbc200e001b88fc8fc2a5e549a0d1507bb88",
      "l1BaseFeeScalar": "0x44d",
      "l1BlobBaseFee": "0x1",
      "l1BlobBaseFeeScalar": "0xa118b",
      "l1Fee": "0x54d3306407",
      "l1GasPrice": "0x21211591a",
      "l1GasUsed": "0x9158"
    },
    {
      "status": "0x1",
      "cumulativeGasUsed": "0x3cade0",
      "logs": [],
      "logsBloom": "0x00000000000000000000000000000000000000000000000000000000000000000000000000000000000000000000000000000000000000000000000000000000000000000000000000000000000000000000000000000000000000000000000000000000000000000000000000000000000000000000000000000000000000000000000000000000000000000000000000000000000000000000000000000000000000000000000000000000000000000000000000000000000000000000000000000000000000000000000000000000000000000000000000000000000000000000000000000000000000000000000000000000000000000000000000000000",
      "type": "0x2",
      "transactionHash": "0x2061359db20488defc7504056e7357db56cd6cf64b96deb8b103bc176e662aeb",
      "transactionIndex": "0xc",
      "blockHash": "0x0515786db6df3a6c711fa90946198cf3aa1c8a8e10ea5e3d9de456d8b119e98e",
      "blockNumber": "0x15fe602",
      "gasUsed": "0x5242",
      "effectiveGasPrice": "0xed673",
      "from": "0xeb0d8736cc2c47882f112507cc8a3355d37d2413",
      "to": "0x4ae0cbc200e001b88fc8fc2a5e549a0d1507bb88",
      "contractAddress": null,
      "l1BaseFeeScalar": "0x44d",
      "l1BlobBaseFee": "0x1",
      "l1BlobBaseFeeScalar": "0xa118b",
      "l1Fee": "0x3a5c47307",
      "l1GasPrice": "0x21211591a",
      "l1GasUsed": "0x640"
    },
    {
      "status": "0x1",
      "cumulativeGasUsed": "0xa1b057",
      "logs": [
        {
          "address": "0xce2c6cd7ab51837e6f0f2313d45d443f79097dd5",
          "topics": [
            "0xdf0d3b0bf99a87fc195d045bc7ec61d3e2619e6a49dd3f5cb69102b8c9702034"
          ],
          "data": "0x0000000000000000000000004ae0cbc200e001b88fc8fc2a5e549a0d1507bb88",
          "blockHash": "0xad76762ed4d799d891458ad375149a85ea5367ab8cfbfed2db182f6844ac3d96",
          "blockNumber": "0x15fe604",
          "transactionHash": "0x550c6de8f3d99572523fc06332f86397f28ce89839feb8895ad8490889c9531a",
          "transactionIndex": "0x2b",
          "logIndex": "0x107",
          "removed": false
        }
      ],
      "logsBloom": "0x00000000000000000000000000000000000000000000000000000008000000000000000000000000000000000000000000000000000000000000000000000000000000000000000000000000000000000000800000000000000000000000000000000000000000000000000000000000000000000000000200000000000000000000000000000000000000000000000000000000000000000000000000000000000000000000000000000000000000000000000000000000000000000040000000000000000000000000000000000000000000000000000000000000000000000000000040000000000000000000000000000000000000000000000000100000",
      "type": "0x2",
      "transactionHash": "0x550c6de8f3d99572523fc06332f86397f28ce89839feb8895ad8490889c9531a",
      "transactionIndex": "0x2b",
      "blockHash": "0xad76762ed4d799d891458ad375149a85ea5367ab8cfbfed2db182f6844ac3d96",
      "blockNumber": "0x15fe604",
      "gasUsed": "0xed2c",
      "effectiveGasPrice": "0xed681",
      "from": "0xeb0d8736cc2c47882f112507cc8a3355d37d2413",
      "to": "0xce2c6cd7ab51837e6f0f2313d45d443f79097dd5",
      "contractAddress": null,
      "l1BaseFeeScalar": "0x44d",
      "l1BlobBaseFee": "0x1",
      "l1BlobBaseFeeScalar": "0xa118b",
      "l1Fee": "0x390c1fbef",
      "l1GasPrice": "0x206242d72",
      "l1GasUsed": "0x640"
    },
    {
      "status": "0x1",
      "cumulativeGasUsed": "0x4d9af7",
      "logs": [
        {
          "address": "0x6966b0e55883d49bfb24539356a2f8a673e02039",
          "topics": [
            "0x769f711d20c679153d382254f59892613b58a97cc876b249134ac25c80f9c814",
            "0x0000000000000000000000004ae0cbc200e001b88fc8fc2a5e549a0d1507bb88",
            "0x000000000000000000000000000000000000000000000000000000000008274f",
            "0x000000000000000000000000b0d5e75d7592a15ba8fad47698db8f06e928eccb"
          ],
          "data": "0x0000000000000000000000000000000000000000000000000000000000000020000000000000000000000000000000000000000000000000000000000000012d0300009c5800014a340000000000000000000000004ae0cbc200e001b88fc8fc2a5e549a0d1507bb880008274f000000000000000000000000b0d5e75d7592a15ba8fad47698db8f06e928eccb000000000000000000000000000000000000000000000000000000000000006000000000000000000000000000000000000000000000000000000000000000a00000000000000000000000000000000000000000000000000000000000000000000000000000000000000000000000000000000000000000000000000000000474657374000000000000000000000000000000000000000000000000000000000000000000000000000000000000000000000000000000000000000000000009746573742064617461000000000000000000000000000000000000000000000000000000000000000000000000000000000000",
          "blockHash": "0xca249c9eeae310dfb6430832d1352c8ba9642c6a2cee84d6818a82a1578d627c",
          "blockNumber": "0x15fe606",
          "transactionHash": "0x37666f06f6786e60d7b95d6e98913bbeb8569155b8465a0cb314f81dd0e419e1",
          "transactionIndex": "0x13",
          "logIndex": "0x52",
          "removed": false
        },
        {
          "address": "0x6966b0e55883d49bfb24539356a2f8a673e02039",
          "topics": [
            "0x788dbc1b7152732178210e7f4d9d010ef016f9eafbe66786bd7169f56e0c353a",
            "0xde9b74e45a7981949b2b0dda5db9c2a64dd41fca98a55d3e8fb098cb48eb00da"
          ],
          "data": "0x",
          "blockHash": "0xca249c9eeae310dfb6430832d1352c8ba9642c6a2cee84d6818a82a1578d627c",
          "blockNumber": "0x15fe606",
          "transactionHash": "0x37666f06f6786e60d7b95d6e98913bbeb8569155b8465a0cb314f81dd0e419e1",
          "transactionIndex": "0x13",
          "logIndex": "0x53",
          "removed": false
        },
        {
          "address": "0x28b02b97a850872c4d33c3e024fab6499ad96564",
          "topics": [
            "0x65695c3748edae85a24cc2c60b299b31f463050bc259150d2e5802ec8d11720a",
            "0xde9b74e45a7981949b2b0dda5db9c2a64dd41fca98a55d3e8fb098cb48eb00da",
            "0x000000000000000000000000000000000000000000000000000000000008274f"
          ],
          "data": "0x00000000000000000000000000000000000000000000000000000000000314ee00000000000000000000000000000000000000000000000000000acd68660ce0",
          "blockHash": "0xca249c9eeae310dfb6430832d1352c8ba9642c6a2cee84d6818a82a1578d627c",
          "blockNumber": "0x15fe606",
          "transactionHash": "0x37666f06f6786e60d7b95d6e98913bbeb8569155b8465a0cb314f81dd0e419e1",
          "transactionIndex": "0x13",
          "logIndex": "0x54",
          "removed": false
        },
        {
          "address": "0x86fb9f1c124fb20ff130c41a79a432f770f67afd",
          "topics": [
            "0x253a3a04cab70d47c1504809242d9350cd81627b4f1d50753e159cf8cd76ed33"
          ],
          "data": "0xde9b74e45a7981949b2b0dda5db9c2a64dd41fca98a55d3e8fb098cb48eb00da0000000000000000000000000000000000000000000000000000000000009aa1",
          "blockHash": "0xca249c9eeae310dfb6430832d1352c8ba9642c6a2cee84d6818a82a1578d627c",
          "blockNumber": "0x15fe606",
          "transactionHash": "0x37666f06f6786e60d7b95d6e98913bbeb8569155b8465a0cb314f81dd0e419e1",
          "transactionIndex": "0x13",
          "logIndex": "0x55",
          "removed": false
        },
        {
          "address": "0x4ae0cbc200e001b88fc8fc2a5e549a0d1507bb88",
          "topics": [
            "0x4988f8beb47890538d8c8f64abfe301628c1dbb649d1d4d7665964e178d5adac"
          ],
          "data": "0x000000000000000000000000000000000000000000000000000000000000006000000000000000000000000000000000000000000000000000000000000000a000000000000000000000000000000000000000000000000000000000000000000000000000000000000000000000000000000000000000000000000000000004746573740000000000000000000000000000000000000000000000000000000000000000000000000000000000000000000000000000000000000000000000097465737420646174610000000000000000000000000000000000000000000000",
          "blockHash": "0xca249c9eeae310dfb6430832d1352c8ba9642c6a2cee84d6818a82a1578d627c",
          "blockNumber": "0x15fe606",
          "transactionHash": "0x37666f06f6786e60d7b95d6e98913bbeb8569155b8465a0cb314f81dd0e419e1",
          "transactionIndex": "0x13",
          "logIndex": "0x56",
          "removed": false
        }
      ],
      "logsBloom": "0x00010000000000808000200000000000000100000000001000000000002000000000000000000000000000800000080000800000000000000040000000000800000000000000000000840000000000000000080400000000000000000200000000020000100000000000020000000000000000000000000000000800000000000000000000000000000000002008000000000000000000200000000000800000000000000000000008000200000000004200000000000000000000000000000000001100000000000000000100000000000000000000000000000000000004000000400000000000000008000000000000000402000000000000000001000400",
      "type": "0x2",
      "transactionHash": "0x37666f06f6786e60d7b95d6e98913bbeb8569155b8465a0cb314f81dd0e419e1",
      "transactionIndex": "0x13",
      "blockHash": "0xca249c9eeae310dfb6430832d1352c8ba9642c6a2cee84d6818a82a1578d627c",
      "blockNumber": "0x15fe606",
      "gasUsed": "0x31f61",
      "effectiveGasPrice": "0xed67d",
      "from": "0xeb0d8736cc2c47882f112507cc8a3355d37d2413",
      "to": "0x4ae0cbc200e001b88fc8fc2a5e549a0d1507bb88",
      "contractAddress": null,
      "l1BaseFeeScalar": "0x44d",
      "l1BlobBaseFee": "0x1",
      "l1BlobBaseFeeScalar": "0xa118b",
      "l1Fee": "0x4819c5cad",
      "l1GasPrice": "0x206242d72",
      "l1GasUsed": "0x7e6"
    }
  ],
  "libraries": [],
  "pending": [],
  "returns": {},
  "timestamp": 1741892333,
  "chain": 84532,
  "commit": "bdf39eb"
}