{
  "transactions": [
    {
      "hash": "0x10b4f5737218c57ef47df4e6298459e6d6c51152e0f74febc5052e8c1542177c",
      "transactionType": "CREATE",
      "contractName": "CrosschainSender",
      "contractAddress": "0x4eb279aa502f0947e159def52ed29ac22b75c7b8",
      "function": null,
      "arguments": [
        "0x6966b0E55883d49BFB24539356a2f8A673E02039",
        "534351",
        "0xbAdfD548E1D369633Cf23a53C7c8dC37607001e9",
        "0xcE2c6cd7ab51837E6F0f2313D45D443F79097Dd5"
      ],
      "transaction": {
        "from": "0xeb0d8736cc2c47882f112507cc8a3355d37d2413",
        "gas": "0x11465c",
        "value": "0x0",
        "input": "0x610100604052346100815761001e61001561019a565b929190916101f5565b610026610086565b610ea961020d823960805181818161037101528181610b960152610c74015260a05181818160a301528181610bc40152610ca7015260c0518181816102df01528181610bec0152610ccf015260e051816104230152610ea990f35b61008c565b60405190565b5f80fd5b601f801991011690565b634e487b7160e01b5f52604160045260245ffd5b906100b890610090565b810190811060018060401b038211176100d057604052565b61009a565b906100e86100e1610086565b92836100ae565b565b5f80fd5b60018060a01b031690565b610102906100ee565b90565b61010e816100f9565b0361011557565b5f80fd5b9050519061012682610105565b565b63ffffffff1690565b61013a81610128565b0361014157565b5f80fd5b9050519061015282610131565b565b6080818303126101955761016a825f8301610119565b9261019261017b8460208501610145565b936101898160408601610119565b93606001610119565b90565b6100ea565b6101b86110b6803803806101ad816100d5565b928339810190610154565b90919293565b90565b6101d56101d06101da926100ee565b6101be565b6100ee565b90565b6101e6906101c1565b90565b6101f2906101dd565b90565b6101fe906101e9565b60805260a05260c05260e05256fe60806040526004361015610015575b366104aa57005b61001f5f3561007e565b80632858c55a14610079578063502f5bd0146100745780639341effc1461006f578063d5438eae1461006a578063d92807a2146100655763dd1a53870361000e5761047a565b610445565b6103ec565b61033a565b6102ab565b6100f0565b60e01c90565b60405190565b5f80fd5b5f80fd5b5f91031261009c57565b61008e565b7f000000000000000000000000000000000000000000000000000000000000000090565b63ffffffff1690565b6100d7906100c5565b9052565b91906100ee905f602085019401906100ce565b565b3461012057610100366004610092565b61011c61010b6100a1565b610113610084565b918291826100db565b0390f35b61008a565b5f80fd5b5f80fd5b9081608091031261013b5790565b610129565b151590565b61014e81610140565b0361015557565b5f80fd5b9050359061016682610145565b565b5f80fd5b5f80fd5b5f80fd5b909182601f830112156101ae5781359167ffffffffffffffff83116101a95760200192600183028401116101a457565b610170565b61016c565b610168565b919060206002028301116101c357565b610170565b909182601f830112156102025781359167ffffffffffffffff83116101fd5760200192602083028401116101f857565b610170565b61016c565b610168565b60c0818303126102a1575f81013567ffffffffffffffff811161029c578261023091830161012d565b9261023e8360208401610159565b92604083013567ffffffffffffffff8111610297578161025f918501610174565b92909361026f83606083016101b3565b9260a082013567ffffffffffffffff81116102925761028e92016101c8565b9091565b610125565b610125565b610125565b61008e565b5f0190565b346102d8576102bb366004610207565b505050505050506102ca610084565b806102d4816102a6565b0390f35b61008a565b7f000000000000000000000000000000000000000000000000000000000000000090565b60018060a01b031690565b61031590610301565b90565b6103219061030c565b9052565b9190610338905f60208501940190610318565b565b3461036a5761034a366004610092565b6103666103556102dd565b61035d610084565b91829182610325565b0390f35b61008a565b7f000000000000000000000000000000000000000000000000000000000000000090565b90565b6103aa6103a56103af92610301565b610393565b610301565b90565b6103bb90610396565b90565b6103c7906103b2565b90565b6103d3906103be565b9052565b91906103ea905f602085019401906103ca565b565b3461041c576103fc366004610092565b61041861040761036f565b61040f610084565b918291826103d7565b0390f35b61008a565b7f000000000000000000000000000000000000000000000000000000000000000090565b3461047557610455366004610092565b610471610460610421565b610468610084565b91829182610325565b0390f35b61008a565b610494610488366004610207565b95949094939193610ade565b61049c610084565b806104a6816102a6565b0390f35b5f80fd5b5f80fd5b5f80fd5b5f80fd5b9035906001602003813603038212156104fc570180359067ffffffffffffffff82116104f7576020019160018202360383136104f257565b6104b6565b6104b2565b6104ae565b5f80fd5b601f801991011690565b634e487b7160e01b5f52604160045260245ffd5b9061052d90610505565b810190811067ffffffffffffffff82111761054757604052565b61050f565b9061055f610558610084565b9283610523565b565b67ffffffffffffffff811161057f5761057b602091610505565b0190565b61050f565b90825f939282370152565b909291926105a461059f82610561565b61054c565b938185526020850190828401116105c0576105be92610584565b565b610501565b9080601f830112156105e3578160206105e09335910161058f565b90565b610168565b90565b6105f4816105e8565b036105fb57565b5f80fd5b9050359061060c826105eb565b565b91909160a0818403126106a8575f81013567ffffffffffffffff81116106a3578361063a9183016105c5565b9261064881602084016105ff565b9261065682604085016105ff565b92606081013567ffffffffffffffff811161069e57836106779183016105c5565b92608082013567ffffffffffffffff81116106995761069692016105c5565b90565b610125565b610125565b610125565b61008e565b5190565b60209181520190565b90825f9392825e0152565b6106e46106ed6020936106f2936106db816106ad565b938480936106b1565b958691016106ba565b610505565b0190565b6106ff906105e8565b9052565b9361073d610758969461073361072861074a969560a08a01908a82035f8c01526106c5565b9460208901906106f6565b60408701906106f6565b84820360608601526106c5565b9160808184039101526106c5565b90565b90359060016020038136030382121561079d570180359067ffffffffffffffff82116107985760200191600182023603831361079357565b6104b6565b6104b2565b6104ae565b91906107bc816107b5816107c1956106b1565b8095610584565b610505565b0190565b95919461080a6107ff61082196956107f16108149561082f9c9a60c08d01918d5f8185039101526107a2565b908a820360208c01526106c5565b9460408901906106f6565b60608701906106f6565b84820360808601526106c5565b9160a08184039101526106c5565b90565b60e01b90565b90505190610845826105eb565b565b906020828203126108605761085d915f01610838565b90565b61008e565b90565b61087190610865565b9052565b5190565b60209181520190565b6108a16108aa6020936108af9361089881610875565b93848093610879565b958691016106ba565b610505565b0190565b6108d76108e49492936108cd60608401955f8501906100ce565b6020830190610868565b6040818403910152610882565b90565b6108ef610084565b3d5f823e3d90fd5b610900906103b2565b90565b60207f696e206d65737361676500000000000000000000000000000000000000000000917f496e73756666696369656e742066756e647320666f722063726f73732d6368615f8201520152565b61095d602a6040926106b1565b61096681610903565b0190565b61097f9060208101905f818303910152610950565b90565b1561098957565b610991610084565b62461bcd60e51b8152806109a76004820161096a565b0390fd5b6109b481610865565b036109bb57565b5f80fd5b905051906109cc826109ab565b565b906020828203126109e7576109e4915f016109bf565b90565b61008e565b5f1c90565b610a05610a00610a0a926105e8565b610393565b6105e8565b90565b610a19610a1e916109ec565b6109f1565b90565b61ffff1690565b610a3181610a21565b03610a3857565b5f80fd5b35610a4681610a28565b90565b9190610a6381610a5c81610a6895610879565b8095610584565b610505565b0190565b610a80610a7b610a8592610a21565b610393565b6105e8565b90565b610a9190610a6c565b9052565b9695939094610ac688606095610ad495610ab9610adc9a5f608086019501906106f6565b8b830360208d01526107a2565b9188830360408a0152610a49565b940190610a88565b565b955092505050610aef915015610140565b610dfe57610b82610b91610b12610b0a8460208101906104ba565b81019061060e565b90939592919386838691610b558486907f897a81971a042c0f58bb1140a1270656d003640a5b4e885eb8b2a42c05e49e7e95610b4c610084565b95869586610703565b0390a1610b65885f81019061075b565b959095979390919293610b76610084565b988997602089016107c5565b60208201810382520382610523565b610bba7f00000000000000000000000000000000000000000000000000000000000000006103be565b6020639c42bd18917f000000000000000000000000000000000000000000000000000000000000000090610c29610c107f0000000000000000000000000000000000000000000000000000000000000000610e4e565b94610c3487610c1d610084565b97889687958695610832565b8552600485016108b3565b03915afa8015610df9576020915f91610dcc575b50610c6f610c55306108f7565b31610c68610c62846105e8565b916105e8565b1015610982565b610c987f00000000000000000000000000000000000000000000000000000000000000006103be565b90610d0863fa31de01919291927f000000000000000000000000000000000000000000000000000000000000000093610d13610cf37f0000000000000000000000000000000000000000000000000000000000000000610e4e565b97610cfc610084565b98899788968795610832565b8552600485016108b3565b03925af1908115610dc757610d9491610d33915f91610d99575b50610a0d565b610d40835f81019061075b565b929092936060610d60610d578360208101906104ba565b92909301610a3c565b917fc694db997aa6bf290770077bf817cf5889350fa738e7ca37f9bcd63a5706c7f396610d8b610084565b96879687610a95565b0390a1565b610dba915060203d8111610dc0575b610db28183610523565b8101906109ce565b5f610d2d565b503d610da8565b6108e7565b610dec9150823d8111610df2575b610de48183610523565b810190610847565b5f610c48565b503d610dda565b6108e7565b50565b5f90565b610e0e90610396565b90565b610e25610e20610e2a92610301565b610393565b6105e8565b90565b5f1b90565b610e46610e41610e4b926105e8565b610e2d565b610865565b90565b610e6b610e66610e7092610e60610e01565b50610e05565b610e11565b610e32565b9056fea2646970667358221220b317de02b353a2557199fb1f686b1933746e0936df10a0a4b3a1e0dead3a257664736f6c634300081c00330000000000000000000000006966b0e55883d49bfb24539356a2f8a673e02039000000000000000000000000000000000000000000000000000000000008274f000000000000000000000000badfd548e1d369633cf23a53c7c8dc37607001e9000000000000000000000000ce2c6cd7ab51837e6f0f2313d45d443f79097dd5",
        "nonce": "0x59",
        "chainId": "0x14a34"
      },
      "additionalContracts": [],
      "isFixedGasLimit": false
    },
    {
      "hash": "0x3b0221a03cd9be8db919b5d260de4deabfdeed48c96c3ab691016cd8d663dd2a",
      "transactionType": "CALL",
      "contractName": null,
      "contractAddress": "0x4eb279aa502f0947e159def52ed29ac22b75c7b8",
      "function": null,
      "arguments": null,
      "transaction": {
        "from": "0xeb0d8736cc2c47882f112507cc8a3355d37d2413",
        "to": "0x4eb279aa502f0947e159def52ed29ac22b75c7b8",
        "gas": "0x784d",
        "value": "0x2386f26fc10000",
        "input": "0x",
        "nonce": "0x5a",
        "chainId": "0x14a34"
      },
      "additionalContracts": [],
      "isFixedGasLimit": false
    },
    {
      "hash": "0xb036f44cc954ae1ac9f15a37c508259d5ddb51402160d54991568148def6409e",
      "transactionType": "CALL",
      "contractName": null,
      "contractAddress": "0xce2c6cd7ab51837e6f0f2313d45d443f79097dd5",
      "function": "setAvsLogic(address)",
      "arguments": [
        "0x4eb279Aa502F0947e159DeF52eD29AC22b75C7B8"
      ],
      "transaction": {
        "from": "0xeb0d8736cc2c47882f112507cc8a3355d37d2413",
        "to": "0xce2c6cd7ab51837e6f0f2313d45d443f79097dd5",
        "gas": "0xeb64",
        "value": "0x0",
        "input": "0x008fd3860000000000000000000000004eb279aa502f0947e159def52ed29ac22b75c7b8",
        "nonce": "0x5b",
        "chainId": "0x14a34"
      },
      "additionalContracts": [],
      "isFixedGasLimit": false
    },
    {
      "hash": "0x00ffd501d6fa4dcee39d6d41b6edd650025d626fed030c61af151f03260b44a0",
      "transactionType": "CALL",
      "contractName": "CrosschainSender",
      "contractAddress": "0x4eb279aa502f0947e159def52ed29ac22b75c7b8",
      "function": "afterTaskSubmission((string,bytes,address,uint16),bool,bytes,uint256[2],uint256[])",
      "arguments": [
        "(QmZkk2Y7c9A9wKoWh3FGRPSRkfZPvEmRnnC5DuqHHESpBb, 0x00000000000000000000000000000000000000000000000000000000000000a00000000000000000000000000000000000000000000000000000000000000000000000000000000000000000000000000000000000000000000001959613c3b100000000000000000000000000000000000000000000000000000000000001000000000000000000000000000000000000000000000000000000000000000140000000000000000000000000000000000000000000000000000000000000002436653961376464622d363739642d343738652d613364302d396465333732383537383835000000000000000000000000000000000000000000000000000000000000000000000000000000000000000000000000000000000000000000000008415050524f5645440000000000000000000000000000000000000000000000000000000000000000000000000000000000000000000000000000000000000038506f6c69637920274141564520436f6d706c6574652041565320506c7567696e2720617574686f72697a6564207472616e73616374696f6e0000000000000000, 0x0000000000000000000000000000000000000000, 0)",
        "true",
        "0x3078",
        "[1, 2]",
        "[]"
      ],
      "transaction": {
        "from": "0xeb0d8736cc2c47882f112507cc8a3355d37d2413",
        "to": "0x4eb279aa502f0947e159def52ed29ac22b75c7b8",
        "gas": "0x4cac9",
        "value": "0x0",
        "input": "0xdd1a538700000000000000000000000000000000000000000000000000000000000000c0000000000000000000000000000000000000000000000000000000000000000100000000000000000000000000000000000000000000000000000000000003600000000000000000000000000000000000000000000000000000000000000001000000000000000000000000000000000000000000000000000000000000000200000000000000000000000000000000000000000000000000000000000003a0000000000000000000000000000000000000000000000000000000000000008000000000000000000000000000000000000000000000000000000000000000e000000000000000000000000000000000000000000000000000000000000000000000000000000000000000000000000000000000000000000000000000000000000000000000000000000000000000000000000000000000000000000000002e516d5a6b6b32593763394139774b6f5768334647525053526b665a5076456d526e6e43354475714848455370426200000000000000000000000000000000000000000000000000000000000000000000000000000000000000000000000001a000000000000000000000000000000000000000000000000000000000000000a00000000000000000000000000000000000000000000000000000000000000000000000000000000000000000000000000000000000000000000001959613c3b100000000000000000000000000000000000000000000000000000000000001000000000000000000000000000000000000000000000000000000000000000140000000000000000000000000000000000000000000000000000000000000002436653961376464622d363739642d343738652d613364302d396465333732383537383835000000000000000000000000000000000000000000000000000000000000000000000000000000000000000000000000000000000000000000000008415050524f5645440000000000000000000000000000000000000000000000000000000000000000000000000000000000000000000000000000000000000038506f6c69637920274141564520436f6d706c6574652041565320506c7567696e2720617574686f72697a6564207472616e73616374696f6e0000000000000000000000000000000000000000000000000000000000000000000000000000000230780000000000000000000000000000000000000000000000000000000000000000000000000000000000000000000000000000000000000000000000000000",
        "nonce": "0x5c",
        "chainId": "0x14a34"
      },
      "additionalContracts": [],
      "isFixedGasLimit": false
    }
  ],
  "receipts": [
    {
      "status": "0x1",
      "cumulativeGasUsed": "0x233584",
      "logs": [],
      "logsBloom": "0x00000000000000000000000000000000000000000000000000000000000000000000000000000000000000000000000000000000000000000000000000000000000000000000000000000000000000000000000000000000000000000000000000000000000000000000000000000000000000000000000000000000000000000000000000000000000000000000000000000000000000000000000000000000000000000000000000000000000000000000000000000000000000000000000000000000000000000000000000000000000000000000000000000000000000000000000000000000000000000000000000000000000000000000000000000000",
      "type": "0x2",
      "transactionHash": "0x10b4f5737218c57ef47df4e6298459e6d6c51152e0f74febc5052e8c1542177c",
      "transactionIndex": "0x6",
      "blockHash": "0xf2142aba4bc4f3ef3850b99f95975498ae88de8c09c0784c94ec1ad32e7d5e41",
      "blockNumber": "0x16258ae",
      "gasUsed": "0xd49d1",
      "effectiveGasPrice": "0x1c5c9b4",
      "from": "0xeb0d8736cc2c47882f112507cc8a3355d37d2413",
      "to": null,
      "contractAddress": "0x4eb279aa502f0947e159def52ed29ac22b75c7b8",
      "l1BaseFeeScalar": "0x44d",
      "l1BlobBaseFee": "0x1",
      "l1BlobBaseFeeScalar": "0xa118b",
      "l1Fee": "0x1f3b7fc9fe",
      "l1GasPrice": "0xab7be225",
      "l1GasUsed": "0xa56c"
    },
    {
      "status": "0x1",
      "cumulativeGasUsed": "0x2387c6",
      "logs": [],
      "logsBloom": "0x00000000000000000000000000000000000000000000000000000000000000000000000000000000000000000000000000000000000000000000000000000000000000000000000000000000000000000000000000000000000000000000000000000000000000000000000000000000000000000000000000000000000000000000000000000000000000000000000000000000000000000000000000000000000000000000000000000000000000000000000000000000000000000000000000000000000000000000000000000000000000000000000000000000000000000000000000000000000000000000000000000000000000000000000000000000",
      "type": "0x2",
      "transactionHash": "0x3b0221a03cd9be8db919b5d260de4deabfdeed48c96c3ab691016cd8d663dd2a",
      "transactionIndex": "0x7",
      "blockHash": "0xf2142aba4bc4f3ef3850b99f95975498ae88de8c09c0784c94ec1ad32e7d5e41",
      "blockNumber": "0x16258ae",
      "gasUsed": "0x5242",
      "effectiveGasPrice": "0x1c5c9b4",
      "from": "0xeb0d8736cc2c47882f112507cc8a3355d37d2413",
      "to": "0x4eb279aa502f0947e159def52ed29ac22b75c7b8",
      "contractAddress": null,
      "l1BaseFeeScalar": "0x44d",
      "l1BlobBaseFee": "0x1",
      "l1BlobBaseFeeScalar": "0xa118b",
      "l1Fee": "0x12e16091a",
      "l1GasPrice": "0xab7be225",
      "l1GasUsed": "0x640"
    },
    {
      "status": "0x1",
      "cumulativeGasUsed": "0x243232",
      "logs": [
        {
          "address": "0xce2c6cd7ab51837e6f0f2313d45d443f79097dd5",
          "topics": [
            "0xdf0d3b0bf99a87fc195d045bc7ec61d3e2619e6a49dd3f5cb69102b8c9702034"
          ],
          "data": "0x0000000000000000000000004eb279aa502f0947e159def52ed29ac22b75c7b8",
          "blockHash": "0xf2142aba4bc4f3ef3850b99f95975498ae88de8c09c0784c94ec1ad32e7d5e41",
          "blockNumber": "0x16258ae",
          "transactionHash": "0xb036f44cc954ae1ac9f15a37c508259d5ddb51402160d54991568148def6409e",
          "transactionIndex": "0x8",
          "logIndex": "0x6",
          "removed": false
        }
      ],
      "logsBloom": "0x00000000000000000000000000000000000000000000000000000008000000000000000000000000000000000000000000000000000000000000000000000000000000000000000000000000000000000000800000000000000000000000000000000000000000000000000000000000000000000000000200000000000000000000000000000000000000000000000000000000000000000000000000000000000000000000000000000000000000000000000000000000000000000040000000000000000000000000000000000000000000000000000000000000000000000000000040000000000000000000000000000000000000000000000000100000",
      "type": "0x2",
      "transactionHash": "0xb036f44cc954ae1ac9f15a37c508259d5ddb51402160d54991568148def6409e",
      "transactionIndex": "0x8",
      "blockHash": "0xf2142aba4bc4f3ef3850b99f95975498ae88de8c09c0784c94ec1ad32e7d5e41",
      "blockNumber": "0x16258ae",
      "gasUsed": "0xaa6c",
      "effectiveGasPrice": "0x1c5c9b4",
      "from": "0xeb0d8736cc2c47882f112507cc8a3355d37d2413",
      "to": "0xce2c6cd7ab51837e6f0f2313d45d443f79097dd5",
      "contractAddress": null,
      "l1BaseFeeScalar": "0x44d",
      "l1BlobBaseFee": "0x1",
      "l1BlobBaseFeeScalar": "0xa118b",
      "l1Fee": "0x12e16091a",
      "l1GasPrice": "0xab7be225",
      "l1GasUsed": "0x640"
    },
    {
      "status": "0x1",
      "cumulativeGasUsed": "0x27aa5f",
      "logs": [
        {
          "address": "0x4eb279aa502f0947e159def52ed29ac22b75c7b8",
          "topics": [
            "0x897a81971a042c0f58bb1140a1270656d003640a5b4e885eb8b2a42c05e49e7e"
          ],
          "data": "0x00000000000000000000000000000000000000000000000000000000000000a00000000000000000000000000000000000000000000000000000000000000000000000000000000000000000000000000000000000000000000001959613c3b100000000000000000000000000000000000000000000000000000000000001000000000000000000000000000000000000000000000000000000000000000140000000000000000000000000000000000000000000000000000000000000002436653961376464622d363739642d343738652d613364302d396465333732383537383835000000000000000000000000000000000000000000000000000000000000000000000000000000000000000000000000000000000000000000000008415050524f5645440000000000000000000000000000000000000000000000000000000000000000000000000000000000000000000000000000000000000038506f6c69637920274141564520436f6d706c6574652041565320506c7567696e2720617574686f72697a6564207472616e73616374696f6e0000000000000000",
          "blockHash": "0xf2142aba4bc4f3ef3850b99f95975498ae88de8c09c0784c94ec1ad32e7d5e41",
          "blockNumber": "0x16258ae",
          "transactionHash": "0x00ffd501d6fa4dcee39d6d41b6edd650025d626fed030c61af151f03260b44a0",
          "transactionIndex": "0x9",
          "logIndex": "0x7",
          "removed": false
        },
        {
          "address": "0x6966b0e55883d49bfb24539356a2f8a673e02039",
          "topics": [
            "0x769f711d20c679153d382254f59892613b58a97cc876b249134ac25c80f9c814",
            "0x0000000000000000000000004eb279aa502f0947e159def52ed29ac22b75c7b8",
            "0x000000000000000000000000000000000000000000000000000000000008274f",
            "0x000000000000000000000000badfd548e1d369633cf23a53c7c8dc37607001e9"
          ],
          "data": "0x0000000000000000000000000000000000000000000000000000000000000020000000000000000000000000000000000000000000000000000000000000026d0300009cc300014a340000000000000000000000004eb279aa502f0947e159def52ed29ac22b75c7b80008274f000000000000000000000000badfd548e1d369633cf23a53c7c8dc37607001e900000000000000000000000000000000000000000000000000000000000000c000000000000000000000000000000000000000000000000000000000000001200000000000000000000000000000000000000000000000000000000000000000000000000000000000000000000000000000000000000000000001959613c3b1000000000000000000000000000000000000000000000000000000000000018000000000000000000000000000000000000000000000000000000000000001c0000000000000000000000000000000000000000000000000000000000000002e516d5a6b6b32593763394139774b6f5768334647525053526b665a5076456d526e6e433544757148484553704262000000000000000000000000000000000000000000000000000000000000000000000000000000000000000000000000002436653961376464622d363739642d343738652d613364302d396465333732383537383835000000000000000000000000000000000000000000000000000000000000000000000000000000000000000000000000000000000000000000000008415050524f5645440000000000000000000000000000000000000000000000000000000000000000000000000000000000000000000000000000000000000038506f6c69637920274141564520436f6d706c6574652041565320506c7567696e2720617574686f72697a6564207472616e73616374696f6e000000000000000000000000000000000000000000000000000000",
          "blockHash": "0xf2142aba4bc4f3ef3850b99f95975498ae88de8c09c0784c94ec1ad32e7d5e41",
          "blockNumber": "0x16258ae",
          "transactionHash": "0x00ffd501d6fa4dcee39d6d41b6edd650025d626fed030c61af151f03260b44a0",
          "transactionIndex": "0x9",
          "logIndex": "0x8",
          "removed": false
        },
        {
          "address": "0x6966b0e55883d49bfb24539356a2f8a673e02039",
          "topics": [
            "0x788dbc1b7152732178210e7f4d9d010ef016f9eafbe66786bd7169f56e0c353a",
            "0x39f72bd2cf51397903952b95c2aa9fd3e4cceecb02a582af84bae29c0f9d172d"
          ],
          "data": "0x",
          "blockHash": "0xf2142aba4bc4f3ef3850b99f95975498ae88de8c09c0784c94ec1ad32e7d5e41",
          "blockNumber": "0x16258ae",
          "transactionHash": "0x00ffd501d6fa4dcee39d6d41b6edd650025d626fed030c61af151f03260b44a0",
          "transactionIndex": "0x9",
          "logIndex": "0x9",
          "removed": false
        },
        {
          "address": "0x28b02b97a850872c4d33c3e024fab6499ad96564",
          "topics": [
            "0x65695c3748edae85a24cc2c60b299b31f463050bc259150d2e5802ec8d11720a",
            "0x39f72bd2cf51397903952b95c2aa9fd3e4cceecb02a582af84bae29c0f9d172d",
            "0x000000000000000000000000000000000000000000000000000000000008274f"
          ],
          "data": "0x00000000000000000000000000000000000000000000000000000000000314ee00000000000000000000000000000000000000000000000000000acd68660ce0",
          "blockHash": "0xf2142aba4bc4f3ef3850b99f95975498ae88de8c09c0784c94ec1ad32e7d5e41",
          "blockNumber": "0x16258ae",
          "transactionHash": "0x00ffd501d6fa4dcee39d6d41b6edd650025d626fed030c61af151f03260b44a0",
          "transactionIndex": "0x9",
          "logIndex": "0xa",
          "removed": false
        },
        {
          "address": "0x86fb9f1c124fb20ff130c41a79a432f770f67afd",
          "topics": [
            "0x253a3a04cab70d47c1504809242d9350cd81627b4f1d50753e159cf8cd76ed33"
          ],
          "data": "0x39f72bd2cf51397903952b95c2aa9fd3e4cceecb02a582af84bae29c0f9d172d0000000000000000000000000000000000000000000000000000000000009ae1",
          "blockHash": "0xf2142aba4bc4f3ef3850b99f95975498ae88de8c09c0784c94ec1ad32e7d5e41",
          "blockNumber": "0x16258ae",
          "transactionHash": "0x00ffd501d6fa4dcee39d6d41b6edd650025d626fed030c61af151f03260b44a0",
          "transactionIndex": "0x9",
          "logIndex": "0xb",
          "removed": false
        },
        {
          "address": "0x4eb279aa502f0947e159def52ed29ac22b75c7b8",
          "topics": [
            "0xc694db997aa6bf290770077bf817cf5889350fa738e7ca37f9bcd63a5706c7f3"
          ],
          "data": "0x39f72bd2cf51397903952b95c2aa9fd3e4cceecb02a582af84bae29c0f9d172d000000000000000000000000000000000000000000000000000000000000008000000000000000000000000000000000000000000000000000000000000000e00000000000000000000000000000000000000000000000000000000000000000000000000000000000000000000000000000000000000000000000000000002e516d5a6b6b32593763394139774b6f5768334647525053526b665a5076456d526e6e43354475714848455370426200000000000000000000000000000000000000000000000000000000000000000000000000000000000000000000000001a000000000000000000000000000000000000000000000000000000000000000a00000000000000000000000000000000000000000000000000000000000000000000000000000000000000000000000000000000000000000000001959613c3b100000000000000000000000000000000000000000000000000000000000001000000000000000000000000000000000000000000000000000000000000000140000000000000000000000000000000000000000000000000000000000000002436653961376464622d363739642d343738652d613364302d396465333732383537383835000000000000000000000000000000000000000000000000000000000000000000000000000000000000000000000000000000000000000000000008415050524f5645440000000000000000000000000000000000000000000000000000000000000000000000000000000000000000000000000000000000000038506f6c69637920274141564520436f6d706c6574652041565320506c7567696e2720617574686f72697a6564207472616e73616374696f6e0000000000000000",
          "blockHash": "0xf2142aba4bc4f3ef3850b99f95975498ae88de8c09c0784c94ec1ad32e7d5e41",
          "blockNumber": "0x16258ae",
          "transactionHash": "0x00ffd501d6fa4dcee39d6d41b6edd650025d626fed030c61af151f03260b44a0",
          "transactionIndex": "0x9",
          "logIndex": "0xc",
          "removed": false
        }
      ],
      "logsBloom": "0x00010000000000808000201000800000000000000000000000000000002000000000000000000000000000000000080000800000000000000000001000800800000000000000000000800000000000000000080000000000000000000000000000000000100000000000020000000000000000000000020000000800000000000000001000000002020000000008000000000000000000000000000000800080000000000000002000000200000000004200000000000000000000000000000000001000000000004020000100000100100000000000000000000000000000000006400000000000000000000000000000000402400100000000000000000400",
      "type": "0x2",
      "transactionHash": "0x00ffd501d6fa4dcee39d6d41b6edd650025d626fed030c61af151f03260b44a0",
      "transactionIndex": "0x9",
      "blockHash": "0xf2142aba4bc4f3ef3850b99f95975498ae88de8c09c0784c94ec1ad32e7d5e41",
      "blockNumber": "0x16258ae",
      "gasUsed": "0x3782d",
      "effectiveGasPrice": "0x1c5c9b4",
      "from": "0xeb0d8736cc2c47882f112507cc8a3355d37d2413",
      "to": "0x4eb279aa502f0947e159def52ed29ac22b75c7b8",
      "contractAddress": null,
      "l1BaseFeeScalar": "0x44d",
      "l1BlobBaseFee": "0x1",
      "l1BlobBaseFeeScalar": "0xa118b",
      "l1Fee": "0x37ec50417",
      "l1GasPrice": "0xab7be225",
      "l1GasUsed": "0x1283"
    }
  ],
  "libraries": [],
  "pending": [],
  "returns": {},
  "timestamp": 1742213182,
  "chain": 84532,
  "commit": "a702947"
}